{
  "contractName": "ERC1155CustomUpgradeableV2",
  "abi": [
    {
      "anonymous": false,
      "inputs": [
        {
          "indexed": false,
          "internalType": "address",
          "name": "previousAdmin",
          "type": "address"
        },
        {
          "indexed": false,
          "internalType": "address",
          "name": "newAdmin",
          "type": "address"
        }
      ],
      "name": "AdminChanged",
      "type": "event"
    },
    {
      "anonymous": false,
      "inputs": [
        {
          "indexed": true,
          "internalType": "address",
          "name": "account",
          "type": "address"
        },
        {
          "indexed": true,
          "internalType": "address",
          "name": "operator",
          "type": "address"
        },
        {
          "indexed": false,
          "internalType": "bool",
          "name": "approved",
          "type": "bool"
        }
      ],
      "name": "ApprovalForAll",
      "type": "event"
    },
    {
      "anonymous": false,
      "inputs": [
        {
          "indexed": true,
          "internalType": "address",
          "name": "beacon",
          "type": "address"
        }
      ],
      "name": "BeaconUpgraded",
      "type": "event"
    },
    {
      "anonymous": false,
      "inputs": [
        {
          "indexed": true,
          "internalType": "address",
          "name": "operator",
          "type": "address"
        },
        {
          "indexed": true,
          "internalType": "address",
          "name": "from",
          "type": "address"
        },
        {
          "indexed": true,
          "internalType": "address",
          "name": "to",
          "type": "address"
        },
        {
          "indexed": false,
          "internalType": "uint256[]",
          "name": "ids",
          "type": "uint256[]"
        },
        {
          "indexed": false,
          "internalType": "uint256[]",
          "name": "values",
          "type": "uint256[]"
        }
      ],
      "name": "TransferBatch",
      "type": "event"
    },
    {
      "anonymous": false,
      "inputs": [
        {
          "indexed": true,
          "internalType": "address",
          "name": "operator",
          "type": "address"
        },
        {
          "indexed": true,
          "internalType": "address",
          "name": "from",
          "type": "address"
        },
        {
          "indexed": true,
          "internalType": "address",
          "name": "to",
          "type": "address"
        },
        {
          "indexed": false,
          "internalType": "uint256",
          "name": "id",
          "type": "uint256"
        },
        {
          "indexed": false,
          "internalType": "uint256",
          "name": "value",
          "type": "uint256"
        }
      ],
      "name": "TransferSingle",
      "type": "event"
    },
    {
      "anonymous": false,
      "inputs": [
        {
          "indexed": false,
          "internalType": "string",
          "name": "value",
          "type": "string"
        },
        {
          "indexed": true,
          "internalType": "uint256",
          "name": "id",
          "type": "uint256"
        }
      ],
      "name": "URI",
      "type": "event"
    },
    {
      "anonymous": false,
      "inputs": [
        {
          "indexed": true,
          "internalType": "address",
          "name": "implementation",
          "type": "address"
        }
      ],
      "name": "Upgraded",
      "type": "event"
    },
    {
      "inputs": [
        {
          "internalType": "address",
          "name": "account",
          "type": "address"
        },
        {
          "internalType": "uint256",
          "name": "id",
          "type": "uint256"
        }
      ],
      "name": "balanceOf",
      "outputs": [
        {
          "internalType": "uint256",
          "name": "",
          "type": "uint256"
        }
      ],
      "stateMutability": "view",
      "type": "function"
    },
    {
      "inputs": [
        {
          "internalType": "address[]",
          "name": "accounts",
          "type": "address[]"
        },
        {
          "internalType": "uint256[]",
          "name": "ids",
          "type": "uint256[]"
        }
      ],
      "name": "balanceOfBatch",
      "outputs": [
        {
          "internalType": "uint256[]",
          "name": "",
          "type": "uint256[]"
        }
      ],
      "stateMutability": "view",
      "type": "function"
    },
    {
      "inputs": [
        {
          "internalType": "address",
          "name": "account",
          "type": "address"
        },
        {
          "internalType": "address",
          "name": "operator",
          "type": "address"
        }
      ],
      "name": "isApprovedForAll",
      "outputs": [
        {
          "internalType": "bool",
          "name": "",
          "type": "bool"
        }
      ],
      "stateMutability": "view",
      "type": "function"
    },
    {
      "inputs": [
        {
          "internalType": "address",
          "name": "from",
          "type": "address"
        },
        {
          "internalType": "address",
          "name": "to",
          "type": "address"
        },
        {
          "internalType": "uint256[]",
          "name": "ids",
          "type": "uint256[]"
        },
        {
          "internalType": "uint256[]",
          "name": "amounts",
          "type": "uint256[]"
        },
        {
          "internalType": "bytes",
          "name": "data",
          "type": "bytes"
        }
      ],
      "name": "safeBatchTransferFrom",
      "outputs": [],
      "stateMutability": "nonpayable",
      "type": "function"
    },
    {
      "inputs": [
        {
          "internalType": "address",
          "name": "from",
          "type": "address"
        },
        {
          "internalType": "address",
          "name": "to",
          "type": "address"
        },
        {
          "internalType": "uint256",
          "name": "id",
          "type": "uint256"
        },
        {
          "internalType": "uint256",
          "name": "amount",
          "type": "uint256"
        },
        {
          "internalType": "bytes",
          "name": "data",
          "type": "bytes"
        }
      ],
      "name": "safeTransferFrom",
      "outputs": [],
      "stateMutability": "nonpayable",
      "type": "function"
    },
    {
      "inputs": [
        {
          "internalType": "address",
          "name": "operator",
          "type": "address"
        },
        {
          "internalType": "bool",
          "name": "approved",
          "type": "bool"
        }
      ],
      "name": "setApprovalForAll",
      "outputs": [],
      "stateMutability": "nonpayable",
      "type": "function"
    },
    {
      "inputs": [
        {
          "internalType": "bytes4",
          "name": "interfaceId",
          "type": "bytes4"
        }
      ],
      "name": "supportsInterface",
      "outputs": [
        {
          "internalType": "bool",
          "name": "",
          "type": "bool"
        }
      ],
      "stateMutability": "view",
      "type": "function"
    },
    {
      "inputs": [
        {
          "internalType": "address",
          "name": "newImplementation",
          "type": "address"
        }
      ],
      "name": "upgradeTo",
      "outputs": [],
      "stateMutability": "nonpayable",
      "type": "function"
    },
    {
      "inputs": [
        {
          "internalType": "address",
          "name": "newImplementation",
          "type": "address"
        },
        {
          "internalType": "bytes",
          "name": "data",
          "type": "bytes"
        }
      ],
      "name": "upgradeToAndCall",
      "outputs": [],
      "stateMutability": "payable",
      "type": "function"
    },
    {
      "inputs": [
        {
          "internalType": "uint256",
          "name": "",
          "type": "uint256"
        }
      ],
      "name": "uri",
      "outputs": [
        {
          "internalType": "string",
          "name": "",
          "type": "string"
        }
      ],
      "stateMutability": "view",
      "type": "function"
    },
    {
      "inputs": [],
      "name": "initialize",
      "outputs": [],
      "stateMutability": "nonpayable",
      "type": "function"
    },
    {
      "inputs": [
        {
          "internalType": "string",
          "name": "newuri",
          "type": "string"
        }
      ],
      "name": "setURI",
      "outputs": [],
      "stateMutability": "nonpayable",
      "type": "function"
    },
    {
      "inputs": [
        {
          "internalType": "address",
          "name": "account",
          "type": "address"
        },
        {
          "internalType": "uint256",
          "name": "id",
          "type": "uint256"
        },
        {
          "internalType": "uint256",
          "name": "amount",
          "type": "uint256"
        }
      ],
      "name": "mint",
      "outputs": [],
      "stateMutability": "nonpayable",
      "type": "function"
    },
    {
      "inputs": [
        {
          "internalType": "address",
          "name": "to",
          "type": "address"
        },
        {
          "internalType": "uint256[]",
          "name": "ids",
          "type": "uint256[]"
        },
        {
          "internalType": "uint256[]",
          "name": "amounts",
          "type": "uint256[]"
        },
        {
          "internalType": "bytes",
          "name": "data",
          "type": "bytes"
        }
      ],
      "name": "mintBatch",
      "outputs": [],
      "stateMutability": "nonpayable",
      "type": "function"
    }
  ],
  "bytecode": "0x60a06040523060805234801561001457600080fd5b506080516122396100456000396000818161055a0152818161059a01528181610741015261078101526122396000f3fe6080604052600436106100dc5760003560e01c80633659cfe61161007f5780638129fc1c116100595780638129fc1c14610253578063a22cb46514610268578063e985e9c514610288578063f242432a146102d157600080fd5b80633659cfe6146101f35780634e1273f4146102135780634f1ef2861461024057600080fd5b80630e89341c116100bb5780630e89341c14610166578063156e29f6146101935780631f7fdffa146101b35780632eb2c2d6146101d357600080fd5b8062fdd58e146100e157806301ffc9a71461011457806302fe530514610144575b600080fd5b3480156100ed57600080fd5b506101016100fc36600461168c565b6102f1565b6040519081526020015b60405180910390f35b34801561012057600080fd5b5061013461012f3660046116cc565b61038a565b604051901515815260200161010b565b34801561015057600080fd5b5061016461015f36600461178a565b6103dc565b005b34801561017257600080fd5b506101866101813660046117db565b6103e8565b60405161010b919061184c565b34801561019f57600080fd5b506101646101ae36600461185f565b61047c565b3480156101bf57600080fd5b506101646101ce366004611947565b6104a6565b3480156101df57600080fd5b506101646101ee3660046119e0565b6104b8565b3480156101ff57600080fd5b5061016461020e366004611a8a565b61054f565b34801561021f57600080fd5b5061023361022e366004611aa5565b61060c565b60405161010b9190611bab565b61016461024e366004611bbe565b610736565b34801561025f57600080fd5b506101646107e7565b34801561027457600080fd5b50610164610283366004611c02565b6108c8565b34801561029457600080fd5b506101346102a3366004611c3e565b6001600160a01b03918216600090815260666020908152604080832093909416825291909152205460ff1690565b3480156102dd57600080fd5b506101646102ec366004611c71565b6108d3565b60006001600160a01b0383166103625760405162461bcd60e51b815260206004820152602b60248201527f455243313135353a2062616c616e636520717565727920666f7220746865207a60448201526a65726f206164647265737360a81b60648201526084015b60405180910390fd5b5060009081526065602090815260408083206001600160a01b03949094168352929052205490565b60006001600160e01b03198216636cdb3d1360e11b14806103bb57506001600160e01b031982166303a24d0760e21b145b806103d657506301ffc9a760e01b6001600160e01b03198316145b92915050565b6103e58161095a565b50565b6060606780546103f790611cd6565b80601f016020809104026020016040519081016040528092919081815260200182805461042390611cd6565b80156104705780601f1061044557610100808354040283529160200191610470565b820191906000526020600020905b81548152906001019060200180831161045357829003601f168201915b50505050509050919050565b6104a1838361048c846002611d27565b6040518060200160405280600081525061096d565b505050565b6104b284848484610a3f565b50505050565b6001600160a01b0385163314806104d457506104d485336102a3565b61053b5760405162461bcd60e51b815260206004820152603260248201527f455243313135353a207472616e736665722063616c6c6572206973206e6f74206044820152711bdddb995c881b9bdc88185c1c1c9bdd995960721b6064820152608401610359565b6105488585858585610b8b565b5050505050565b306001600160a01b037f00000000000000000000000000000000000000000000000000000000000000001614156105985760405162461bcd60e51b815260040161035990611d46565b7f00000000000000000000000000000000000000000000000000000000000000006001600160a01b03166105ca610d2a565b6001600160a01b0316146105f05760405162461bcd60e51b815260040161035990611d92565b604080516000808252602082019092526103e591839190610d58565b606081518351146106715760405162461bcd60e51b815260206004820152602960248201527f455243313135353a206163636f756e747320616e6420696473206c656e677468604482015268040dad2e6dac2e8c6d60bb1b6064820152608401610359565b6000835167ffffffffffffffff81111561068d5761068d6116e9565b6040519080825280602002602001820160405280156106b6578160200160208202803683370190505b50905060005b845181101561072e576107018582815181106106da576106da611dde565b60200260200101518583815181106106f4576106f4611dde565b60200260200101516102f1565b82828151811061071357610713611dde565b602090810291909101015261072781611df4565b90506106bc565b509392505050565b306001600160a01b037f000000000000000000000000000000000000000000000000000000000000000016141561077f5760405162461bcd60e51b815260040161035990611d46565b7f00000000000000000000000000000000000000000000000000000000000000006001600160a01b03166107b1610d2a565b6001600160a01b0316146107d75760405162461bcd60e51b815260040161035990611d92565b6107e382826001610d58565b5050565b600054610100900460ff166108025760005460ff1615610806565b303b155b6108695760405162461bcd60e51b815260206004820152602e60248201527f496e697469616c697a61626c653a20636f6e747261637420697320616c72656160448201526d191e481a5b9a5d1a585b1a5e995960921b6064820152608401610359565b600054610100900460ff1615801561088b576000805461ffff19166101011790555b6108ac6040518060a001604052806063815260200161217a60639139610e9c565b6108b4610edc565b80156103e5576000805461ff001916905550565b6107e3338383610f15565b6001600160a01b0385163314806108ef57506108ef85336102a3565b61094d5760405162461bcd60e51b815260206004820152602960248201527f455243313135353a2063616c6c6572206973206e6f74206f776e6572206e6f7260448201526808185c1c1c9bdd995960ba1b6064820152608401610359565b6105488585858585610ff6565b80516107e39060679060208401906115d7565b6001600160a01b0384166109935760405162461bcd60e51b815260040161035990611e0f565b336109ad816000876109a488611117565b61054888611117565b60008481526065602090815260408083206001600160a01b0389168452909152812080548592906109df908490611e50565b909155505060408051858152602081018590526001600160a01b0380881692600092918516917fc3d58168c5ae7397731d063d5bbf3d657854427343f4c083240f7aacaa2d0f62910160405180910390a461054881600087878787611162565b6001600160a01b038416610a655760405162461bcd60e51b815260040161035990611e0f565b8151835114610a865760405162461bcd60e51b815260040161035990611e68565b3360005b8451811015610b2357838181518110610aa557610aa5611dde565b602002602001015160656000878481518110610ac357610ac3611dde565b602002602001015181526020019081526020016000206000886001600160a01b03166001600160a01b031681526020019081526020016000206000828254610b0b9190611e50565b90915550819050610b1b81611df4565b915050610a8a565b50846001600160a01b031660006001600160a01b0316826001600160a01b03167f4a39dc06d4c0dbc64b70af90fd698a233a518aa5d07e595d983b8c0526c8f7fb8787604051610b74929190611eb0565b60405180910390a4610548816000878787876112be565b8151835114610bac5760405162461bcd60e51b815260040161035990611e68565b6001600160a01b038416610bd25760405162461bcd60e51b815260040161035990611ed5565b3360005b8451811015610cbc576000858281518110610bf357610bf3611dde565b602002602001015190506000858381518110610c1157610c11611dde565b60209081029190910181015160008481526065835260408082206001600160a01b038e168352909352919091205490915081811015610c625760405162461bcd60e51b815260040161035990611f1a565b60008381526065602090815260408083206001600160a01b038e8116855292528083208585039055908b16825281208054849290610ca1908490611e50565b9250508190555050505080610cb590611df4565b9050610bd6565b50846001600160a01b0316866001600160a01b0316826001600160a01b03167f4a39dc06d4c0dbc64b70af90fd698a233a518aa5d07e595d983b8c0526c8f7fb8787604051610d0c929190611eb0565b60405180910390a4610d228187878787876112be565b505050505050565b7f360894a13ba1a3210667c828492db98dca3e2076cc3735a920a3ca505d382bbc546001600160a01b031690565b6000610d62610d2a565b9050610d6d84611379565b600083511180610d7a5750815b15610d8b57610d89848461141e565b505b7f4910fdfa16fed3260ed0e7147f7cc6da11a60208b5b9406d12a635614ffd9143805460ff1661054857805460ff191660011781556040516001600160a01b0383166024820152610e0a90869060440160408051601f198184030181529190526020810180516001600160e01b0316631b2ce7f360e11b17905261141e565b50805460ff19168155610e1b610d2a565b6001600160a01b0316826001600160a01b031614610e935760405162461bcd60e51b815260206004820152602f60248201527f45524331393637557067726164653a207570677261646520627265616b73206660448201526e75727468657220757067726164657360881b6064820152608401610359565b61054885611509565b600054610100900460ff16610ec35760405162461bcd60e51b815260040161035990611f64565b610ecb611549565b610ed3611549565b6103e581611570565b600054610100900460ff16610f035760405162461bcd60e51b815260040161035990611f64565b610f0b611549565b610f13611549565b565b816001600160a01b0316836001600160a01b03161415610f895760405162461bcd60e51b815260206004820152602960248201527f455243313135353a2073657474696e6720617070726f76616c20737461747573604482015268103337b91039b2b63360b91b6064820152608401610359565b6001600160a01b03838116600081815260666020908152604080832094871680845294825291829020805460ff191686151590811790915591519182527f17307eab39ab6107e8899845ad3d59bd9653f200f220920489ca2b5937696c31910160405180910390a3505050565b6001600160a01b03841661101c5760405162461bcd60e51b815260040161035990611ed5565b3361102c8187876109a488611117565b60008481526065602090815260408083206001600160a01b038a1684529091529020548381101561106f5760405162461bcd60e51b815260040161035990611f1a565b60008581526065602090815260408083206001600160a01b038b81168552925280832087850390559088168252812080548692906110ae908490611e50565b909155505060408051868152602081018690526001600160a01b03808916928a821692918616917fc3d58168c5ae7397731d063d5bbf3d657854427343f4c083240f7aacaa2d0f62910160405180910390a461110e828888888888611162565b50505050505050565b6040805160018082528183019092526060916000919060208083019080368337019050509050828160008151811061115157611151611dde565b602090810291909101015292915050565b6001600160a01b0384163b15610d225760405163f23a6e6160e01b81526001600160a01b0385169063f23a6e61906111a69089908990889088908890600401611faf565b6020604051808303816000875af19250505080156111e1575060408051601f3d908101601f191682019092526111de91810190611ff4565b60015b61128e576111ed612011565b806308c379a01415611227575061120261202d565b8061120d5750611229565b8060405162461bcd60e51b8152600401610359919061184c565b505b60405162461bcd60e51b815260206004820152603460248201527f455243313135353a207472616e7366657220746f206e6f6e20455243313135356044820152732932b1b2b4bb32b91034b6b83632b6b2b73a32b960611b6064820152608401610359565b6001600160e01b0319811663f23a6e6160e01b1461110e5760405162461bcd60e51b8152600401610359906120b7565b6001600160a01b0384163b15610d225760405163bc197c8160e01b81526001600160a01b0385169063bc197c819061130290899089908890889088906004016120ff565b6020604051808303816000875af192505050801561133d575060408051601f3d908101601f1916820190925261133a91810190611ff4565b60015b611349576111ed612011565b6001600160e01b0319811663bc197c8160e01b1461110e5760405162461bcd60e51b8152600401610359906120b7565b803b6113dd5760405162461bcd60e51b815260206004820152602d60248201527f455243313936373a206e657720696d706c656d656e746174696f6e206973206e60448201526c1bdd08184818dbdb9d1c9858dd609a1b6064820152608401610359565b7f360894a13ba1a3210667c828492db98dca3e2076cc3735a920a3ca505d382bbc80546001600160a01b0319166001600160a01b0392909216919091179055565b6060823b61147d5760405162461bcd60e51b815260206004820152602660248201527f416464726573733a2064656c65676174652063616c6c20746f206e6f6e2d636f6044820152651b9d1c9858dd60d21b6064820152608401610359565b600080846001600160a01b031684604051611498919061215d565b600060405180830381855af49150503d80600081146114d3576040519150601f19603f3d011682016040523d82523d6000602084013e6114d8565b606091505b509150915061150082826040518060600160405280602781526020016121dd60279139611597565b95945050505050565b61151281611379565b6040516001600160a01b038216907fbc7cd75a20ee27fd9adebab32041f755214dbc6bffa90cc0225b39da2e5c2d3b90600090a250565b600054610100900460ff16610f135760405162461bcd60e51b815260040161035990611f64565b600054610100900460ff166103dc5760405162461bcd60e51b815260040161035990611f64565b606083156115a65750816115d0565b8251156115b65782518084602001fd5b8160405162461bcd60e51b8152600401610359919061184c565b9392505050565b8280546115e390611cd6565b90600052602060002090601f016020900481019282611605576000855561164b565b82601f1061161e57805160ff191683800117855561164b565b8280016001018555821561164b579182015b8281111561164b578251825591602001919060010190611630565b5061165792915061165b565b5090565b5b80821115611657576000815560010161165c565b80356001600160a01b038116811461168757600080fd5b919050565b6000806040838503121561169f57600080fd5b6116a883611670565b946020939093013593505050565b6001600160e01b0319811681146103e557600080fd5b6000602082840312156116de57600080fd5b81356115d0816116b6565b634e487b7160e01b600052604160045260246000fd5b601f8201601f1916810167ffffffffffffffff81118282101715611725576117256116e9565b6040525050565b600067ffffffffffffffff831115611746576117466116e9565b60405161175d601f8501601f1916602001826116ff565b80915083815284848401111561177257600080fd5b83836020830137600060208583010152509392505050565b60006020828403121561179c57600080fd5b813567ffffffffffffffff8111156117b357600080fd5b8201601f810184136117c457600080fd5b6117d38482356020840161172c565b949350505050565b6000602082840312156117ed57600080fd5b5035919050565b60005b8381101561180f5781810151838201526020016117f7565b838111156104b25750506000910152565b600081518084526118388160208601602086016117f4565b601f01601f19169290920160200192915050565b6020815260006115d06020830184611820565b60008060006060848603121561187457600080fd5b61187d84611670565b95602085013595506040909401359392505050565b600067ffffffffffffffff8211156118ac576118ac6116e9565b5060051b60200190565b600082601f8301126118c757600080fd5b813560206118d482611892565b6040516118e182826116ff565b83815260059390931b850182019282810191508684111561190157600080fd5b8286015b8481101561191c5780358352918301918301611905565b509695505050505050565b600082601f83011261193857600080fd5b6115d08383356020850161172c565b6000806000806080858703121561195d57600080fd5b61196685611670565b9350602085013567ffffffffffffffff8082111561198357600080fd5b61198f888389016118b6565b945060408701359150808211156119a557600080fd5b6119b1888389016118b6565b935060608701359150808211156119c757600080fd5b506119d487828801611927565b91505092959194509250565b600080600080600060a086880312156119f857600080fd5b611a0186611670565b9450611a0f60208701611670565b9350604086013567ffffffffffffffff80821115611a2c57600080fd5b611a3889838a016118b6565b94506060880135915080821115611a4e57600080fd5b611a5a89838a016118b6565b93506080880135915080821115611a7057600080fd5b50611a7d88828901611927565b9150509295509295909350565b600060208284031215611a9c57600080fd5b6115d082611670565b60008060408385031215611ab857600080fd5b823567ffffffffffffffff80821115611ad057600080fd5b818501915085601f830112611ae457600080fd5b81356020611af182611892565b604051611afe82826116ff565b83815260059390931b8501820192828101915089841115611b1e57600080fd5b948201945b83861015611b4357611b3486611670565b82529482019490820190611b23565b96505086013592505080821115611b5957600080fd5b50611b66858286016118b6565b9150509250929050565b600081518084526020808501945080840160005b83811015611ba057815187529582019590820190600101611b84565b509495945050505050565b6020815260006115d06020830184611b70565b60008060408385031215611bd157600080fd5b611bda83611670565b9150602083013567ffffffffffffffff811115611bf657600080fd5b611b6685828601611927565b60008060408385031215611c1557600080fd5b611c1e83611670565b915060208301358015158114611c3357600080fd5b809150509250929050565b60008060408385031215611c5157600080fd5b611c5a83611670565b9150611c6860208401611670565b90509250929050565b600080600080600060a08688031215611c8957600080fd5b611c9286611670565b9450611ca060208701611670565b93506040860135925060608601359150608086013567ffffffffffffffff811115611cca57600080fd5b611a7d88828901611927565b600181811c90821680611cea57607f821691505b60208210811415611d0b57634e487b7160e01b600052602260045260246000fd5b50919050565b634e487b7160e01b600052601160045260246000fd5b6000816000190483118215151615611d4157611d41611d11565b500290565b6020808252602c908201527f46756e6374696f6e206d7573742062652063616c6c6564207468726f7567682060408201526b19195b1959d85d1958d85b1b60a21b606082015260800190565b6020808252602c908201527f46756e6374696f6e206d7573742062652063616c6c6564207468726f7567682060408201526b6163746976652070726f787960a01b606082015260800190565b634e487b7160e01b600052603260045260246000fd5b6000600019821415611e0857611e08611d11565b5060010190565b60208082526021908201527f455243313135353a206d696e7420746f20746865207a65726f206164647265736040820152607360f81b606082015260800190565b60008219821115611e6357611e63611d11565b500190565b60208082526028908201527f455243313135353a2069647320616e6420616d6f756e7473206c656e677468206040820152670dad2e6dac2e8c6d60c31b606082015260800190565b604081526000611ec36040830185611b70565b82810360208401526115008185611b70565b60208082526025908201527f455243313135353a207472616e7366657220746f20746865207a65726f206164604082015264647265737360d81b606082015260800190565b6020808252602a908201527f455243313135353a20696e73756666696369656e742062616c616e636520666f60408201526939103a3930b739b332b960b11b606082015260800190565b6020808252602b908201527f496e697469616c697a61626c653a20636f6e7472616374206973206e6f74206960408201526a6e697469616c697a696e6760a81b606082015260800190565b6001600160a01b03868116825285166020820152604081018490526060810183905260a060808201819052600090611fe990830184611820565b979650505050505050565b60006020828403121561200657600080fd5b81516115d0816116b6565b600060033d111561202a5760046000803e5060005160e01c5b90565b600060443d101561203b5790565b6040516003193d81016004833e81513d67ffffffffffffffff816024840111818411171561206b57505050505090565b82850191508151818111156120835750505050505090565b843d870101602082850101111561209d5750505050505090565b6120ac602082860101876116ff565b509095945050505050565b60208082526028908201527f455243313135353a204552433131353552656365697665722072656a656374656040820152676420746f6b656e7360c01b606082015260800190565b6001600160a01b0386811682528516602082015260a06040820181905260009061212b90830186611b70565b828103606084015261213d8186611b70565b905082810360808401526121518185611820565b98975050505050505050565b6000825161216f8184602087016117f4565b919091019291505056fe68747470733a2f2f697066732e6d6f72616c69732e696f3a323035332f697066732f516d52734674784262646d383864476d703261625956756b69543451646f693147337133314b59426f5744394c722f6d657461646174612f7b69647d2e6a736f6e416464726573733a206c6f772d6c6576656c2064656c65676174652063616c6c206661696c6564a264697066735822122014134f82d65f56737172a14293353a36ffb9b9e7e853db2cee0f72054ab8c92e64736f6c634300080b0033",
  "immutableReferences": {
    "644": [
      {
        "length": 32,
        "start": 1370
      },
      {
        "length": 32,
        "start": 1434
      },
      {
        "length": 32,
        "start": 1857
      },
      {
        "length": 32,
        "start": 1921
      }
    ]
  },
  "source": "// SPDX-License-Identifier: MIT\npragma solidity ^0.8.11;\n\nimport \"@openzeppelin/contracts-upgradeable/token/ERC1155/ERC1155Upgradeable.sol\";\nimport \"@openzeppelin/contracts-upgradeable/access/OwnableUpgradeable.sol\";\nimport \"@openzeppelin/contracts-upgradeable/proxy/utils/Initializable.sol\";\nimport \"@openzeppelin/contracts-upgradeable/proxy/utils/UUPSUpgradeable.sol\";\n\ncontract ERC1155CustomUpgradeableV2 is\n    Initializable,\n    ERC1155Upgradeable,\n    UUPSUpgradeable\n{\n    function initialize() public initializer {\n        __ERC1155_init(\n            \"https://ipfs.moralis.io:2053/ipfs/QmRsFtxBbdm88dGmp2abYVukiT4Qdoi1G3q31KYBoWD9Lr/metadata/{id}.json\"\n        );\n        __UUPSUpgradeable_init();\n    }\n\n    function setURI(string memory newuri) public {\n        _setURI(newuri);\n    }\n\n    function mint(\n        address account,\n        uint256 id,\n        uint256 amount\n    ) public {\n        _mint(account, id, amount * 2, \"\");\n    }\n\n    function mintBatch(\n        address to,\n        uint256[] memory ids,\n        uint256[] memory amounts,\n        bytes memory data\n    ) public {\n        _mintBatch(to, ids, amounts, data);\n    }\n\n    function _authorizeUpgrade(address newImplementation) internal override {}\n}\n",
  "sourcePath": "/home/yosephkurniasoenggoro/Documents/GitHub/moralis-upgradeable-smart-contracts/Truffle/contracts/ERC1155CustomUpgradeable/ERC1155CustomUpgradeableV2.sol",
  "compiler": {
    "name": "solc",
    "version": "0.8.11+commit.d7f03943.Emscripten.clang"
  },
  "schemaVersion": "3.4.4",
  "updatedAt": "2022-01-18T18:32:59.977Z",
  "devdoc": {
    "kind": "dev",
    "methods": {
      "balanceOf(address,uint256)": {
        "details": "See {IERC1155-balanceOf}. Requirements: - `account` cannot be the zero address."
      },
      "balanceOfBatch(address[],uint256[])": {
        "details": "See {IERC1155-balanceOfBatch}. Requirements: - `accounts` and `ids` must have the same length."
      },
      "isApprovedForAll(address,address)": {
        "details": "See {IERC1155-isApprovedForAll}."
      },
      "safeBatchTransferFrom(address,address,uint256[],uint256[],bytes)": {
        "details": "See {IERC1155-safeBatchTransferFrom}."
      },
      "safeTransferFrom(address,address,uint256,uint256,bytes)": {
        "details": "See {IERC1155-safeTransferFrom}."
      },
      "setApprovalForAll(address,bool)": {
        "details": "See {IERC1155-setApprovalForAll}."
      },
      "supportsInterface(bytes4)": {
        "details": "See {IERC165-supportsInterface}."
      },
      "upgradeTo(address)": {
        "details": "Upgrade the implementation of the proxy to `newImplementation`. Calls {_authorizeUpgrade}. Emits an {Upgraded} event."
      },
      "upgradeToAndCall(address,bytes)": {
        "details": "Upgrade the implementation of the proxy to `newImplementation`, and subsequently execute the function call encoded in `data`. Calls {_authorizeUpgrade}. Emits an {Upgraded} event."
      },
      "uri(uint256)": {
        "details": "See {IERC1155MetadataURI-uri}. This implementation returns the same URI for *all* token types. It relies on the token type ID substitution mechanism https://eips.ethereum.org/EIPS/eip-1155#metadata[defined in the EIP]. Clients calling this function must replace the `\\{id\\}` substring with the actual token type ID."
      }
    },
    "version": 1
  },
  "userdoc": {
    "kind": "user",
    "methods": {},
    "version": 1
  }
}