{
  "contractName": "ERC1155CustomUpgradeableV1",
  "abi": [
    {
      "anonymous": false,
      "inputs": [
        {
          "indexed": false,
          "internalType": "address",
          "name": "previousAdmin",
          "type": "address"
        },
        {
          "indexed": false,
          "internalType": "address",
          "name": "newAdmin",
          "type": "address"
        }
      ],
      "name": "AdminChanged",
      "type": "event"
    },
    {
      "anonymous": false,
      "inputs": [
        {
          "indexed": true,
          "internalType": "address",
          "name": "account",
          "type": "address"
        },
        {
          "indexed": true,
          "internalType": "address",
          "name": "operator",
          "type": "address"
        },
        {
          "indexed": false,
          "internalType": "bool",
          "name": "approved",
          "type": "bool"
        }
      ],
      "name": "ApprovalForAll",
      "type": "event"
    },
    {
      "anonymous": false,
      "inputs": [
        {
          "indexed": true,
          "internalType": "address",
          "name": "beacon",
          "type": "address"
        }
      ],
      "name": "BeaconUpgraded",
      "type": "event"
    },
    {
      "anonymous": false,
      "inputs": [
        {
          "indexed": true,
          "internalType": "address",
          "name": "previousOwner",
          "type": "address"
        },
        {
          "indexed": true,
          "internalType": "address",
          "name": "newOwner",
          "type": "address"
        }
      ],
      "name": "OwnershipTransferred",
      "type": "event"
    },
    {
      "anonymous": false,
      "inputs": [
        {
          "indexed": true,
          "internalType": "address",
          "name": "operator",
          "type": "address"
        },
        {
          "indexed": true,
          "internalType": "address",
          "name": "from",
          "type": "address"
        },
        {
          "indexed": true,
          "internalType": "address",
          "name": "to",
          "type": "address"
        },
        {
          "indexed": false,
          "internalType": "uint256[]",
          "name": "ids",
          "type": "uint256[]"
        },
        {
          "indexed": false,
          "internalType": "uint256[]",
          "name": "values",
          "type": "uint256[]"
        }
      ],
      "name": "TransferBatch",
      "type": "event"
    },
    {
      "anonymous": false,
      "inputs": [
        {
          "indexed": true,
          "internalType": "address",
          "name": "operator",
          "type": "address"
        },
        {
          "indexed": true,
          "internalType": "address",
          "name": "from",
          "type": "address"
        },
        {
          "indexed": true,
          "internalType": "address",
          "name": "to",
          "type": "address"
        },
        {
          "indexed": false,
          "internalType": "uint256",
          "name": "id",
          "type": "uint256"
        },
        {
          "indexed": false,
          "internalType": "uint256",
          "name": "value",
          "type": "uint256"
        }
      ],
      "name": "TransferSingle",
      "type": "event"
    },
    {
      "anonymous": false,
      "inputs": [
        {
          "indexed": false,
          "internalType": "string",
          "name": "value",
          "type": "string"
        },
        {
          "indexed": true,
          "internalType": "uint256",
          "name": "id",
          "type": "uint256"
        }
      ],
      "name": "URI",
      "type": "event"
    },
    {
      "anonymous": false,
      "inputs": [
        {
          "indexed": true,
          "internalType": "address",
          "name": "implementation",
          "type": "address"
        }
      ],
      "name": "Upgraded",
      "type": "event"
    },
    {
      "inputs": [
        {
          "internalType": "address",
          "name": "account",
          "type": "address"
        },
        {
          "internalType": "uint256",
          "name": "id",
          "type": "uint256"
        }
      ],
      "name": "balanceOf",
      "outputs": [
        {
          "internalType": "uint256",
          "name": "",
          "type": "uint256"
        }
      ],
      "stateMutability": "view",
      "type": "function"
    },
    {
      "inputs": [
        {
          "internalType": "address[]",
          "name": "accounts",
          "type": "address[]"
        },
        {
          "internalType": "uint256[]",
          "name": "ids",
          "type": "uint256[]"
        }
      ],
      "name": "balanceOfBatch",
      "outputs": [
        {
          "internalType": "uint256[]",
          "name": "",
          "type": "uint256[]"
        }
      ],
      "stateMutability": "view",
      "type": "function"
    },
    {
      "inputs": [
        {
          "internalType": "address",
          "name": "account",
          "type": "address"
        },
        {
          "internalType": "address",
          "name": "operator",
          "type": "address"
        }
      ],
      "name": "isApprovedForAll",
      "outputs": [
        {
          "internalType": "bool",
          "name": "",
          "type": "bool"
        }
      ],
      "stateMutability": "view",
      "type": "function"
    },
    {
      "inputs": [],
      "name": "owner",
      "outputs": [
        {
          "internalType": "address",
          "name": "",
          "type": "address"
        }
      ],
      "stateMutability": "view",
      "type": "function"
    },
    {
      "inputs": [],
      "name": "renounceOwnership",
      "outputs": [],
      "stateMutability": "nonpayable",
      "type": "function"
    },
    {
      "inputs": [
        {
          "internalType": "address",
          "name": "from",
          "type": "address"
        },
        {
          "internalType": "address",
          "name": "to",
          "type": "address"
        },
        {
          "internalType": "uint256[]",
          "name": "ids",
          "type": "uint256[]"
        },
        {
          "internalType": "uint256[]",
          "name": "amounts",
          "type": "uint256[]"
        },
        {
          "internalType": "bytes",
          "name": "data",
          "type": "bytes"
        }
      ],
      "name": "safeBatchTransferFrom",
      "outputs": [],
      "stateMutability": "nonpayable",
      "type": "function"
    },
    {
      "inputs": [
        {
          "internalType": "address",
          "name": "from",
          "type": "address"
        },
        {
          "internalType": "address",
          "name": "to",
          "type": "address"
        },
        {
          "internalType": "uint256",
          "name": "id",
          "type": "uint256"
        },
        {
          "internalType": "uint256",
          "name": "amount",
          "type": "uint256"
        },
        {
          "internalType": "bytes",
          "name": "data",
          "type": "bytes"
        }
      ],
      "name": "safeTransferFrom",
      "outputs": [],
      "stateMutability": "nonpayable",
      "type": "function"
    },
    {
      "inputs": [
        {
          "internalType": "address",
          "name": "operator",
          "type": "address"
        },
        {
          "internalType": "bool",
          "name": "approved",
          "type": "bool"
        }
      ],
      "name": "setApprovalForAll",
      "outputs": [],
      "stateMutability": "nonpayable",
      "type": "function"
    },
    {
      "inputs": [
        {
          "internalType": "bytes4",
          "name": "interfaceId",
          "type": "bytes4"
        }
      ],
      "name": "supportsInterface",
      "outputs": [
        {
          "internalType": "bool",
          "name": "",
          "type": "bool"
        }
      ],
      "stateMutability": "view",
      "type": "function"
    },
    {
      "inputs": [
        {
          "internalType": "address",
          "name": "newOwner",
          "type": "address"
        }
      ],
      "name": "transferOwnership",
      "outputs": [],
      "stateMutability": "nonpayable",
      "type": "function"
    },
    {
      "inputs": [
        {
          "internalType": "address",
          "name": "newImplementation",
          "type": "address"
        }
      ],
      "name": "upgradeTo",
      "outputs": [],
      "stateMutability": "nonpayable",
      "type": "function"
    },
    {
      "inputs": [
        {
          "internalType": "address",
          "name": "newImplementation",
          "type": "address"
        },
        {
          "internalType": "bytes",
          "name": "data",
          "type": "bytes"
        }
      ],
      "name": "upgradeToAndCall",
      "outputs": [],
      "stateMutability": "payable",
      "type": "function"
    },
    {
      "inputs": [
        {
          "internalType": "uint256",
          "name": "",
          "type": "uint256"
        }
      ],
      "name": "uri",
      "outputs": [
        {
          "internalType": "string",
          "name": "",
          "type": "string"
        }
      ],
      "stateMutability": "view",
      "type": "function"
    },
    {
      "inputs": [],
      "name": "initialize",
      "outputs": [],
      "stateMutability": "nonpayable",
      "type": "function"
    },
    {
      "inputs": [
        {
          "internalType": "string",
          "name": "newuri",
          "type": "string"
        }
      ],
      "name": "setURI",
      "outputs": [],
      "stateMutability": "nonpayable",
      "type": "function"
    },
    {
      "inputs": [
        {
          "internalType": "address",
          "name": "account",
          "type": "address"
        },
        {
          "internalType": "uint256",
          "name": "id",
          "type": "uint256"
        },
        {
          "internalType": "uint256",
          "name": "amount",
          "type": "uint256"
        }
      ],
      "name": "mint",
      "outputs": [],
      "stateMutability": "nonpayable",
      "type": "function"
    },
    {
      "inputs": [
        {
          "internalType": "address",
          "name": "to",
          "type": "address"
        },
        {
          "internalType": "uint256[]",
          "name": "ids",
          "type": "uint256[]"
        },
        {
          "internalType": "uint256[]",
          "name": "amounts",
          "type": "uint256[]"
        },
        {
          "internalType": "bytes",
          "name": "data",
          "type": "bytes"
        }
      ],
      "name": "mintBatch",
      "outputs": [],
      "stateMutability": "nonpayable",
      "type": "function"
    }
  ],
  "bytecode": "0x60a06040523060805234801561001457600080fd5b5060805161248c610045600039600081816105ce0152818161060e015281816107be01526107fe015261248c6000f3fe6080604052600436106100fd5760003560e01c80634e1273f4116100955780638da5cb5b116100645780638da5cb5b1461029e578063a22cb465146102c6578063e985e9c5146102e6578063f242432a1461032f578063f2fde38b1461034f57600080fd5b80634e1273f4146102345780634f1ef28614610261578063715018a6146102745780638129fc1c1461028957600080fd5b8063156e29f6116100d1578063156e29f6146101b45780631f7fdffa146101d45780632eb2c2d6146101f45780633659cfe61461021457600080fd5b8062fdd58e1461010257806301ffc9a71461013557806302fe5305146101655780630e89341c14610187575b600080fd5b34801561010e57600080fd5b5061012261011d3660046118c9565b61036f565b6040519081526020015b60405180910390f35b34801561014157600080fd5b50610155610150366004611909565b610408565b604051901515815260200161012c565b34801561017157600080fd5b506101856101803660046119c7565b61045a565b005b34801561019357600080fd5b506101a76101a2366004611a18565b610466565b60405161012c9190611a89565b3480156101c057600080fd5b506101856101cf366004611a9c565b6104fa565b3480156101e057600080fd5b506101856101ef366004611b84565b61051a565b34801561020057600080fd5b5061018561020f366004611c1d565b61052c565b34801561022057600080fd5b5061018561022f366004611cc7565b6105c3565b34801561024057600080fd5b5061025461024f366004611ce2565b610689565b60405161012c9190611de8565b61018561026f366004611dfb565b6107b3565b34801561028057600080fd5b5061018561086d565b34801561029557600080fd5b506101856108a3565b3480156102aa57600080fd5b506033546040516001600160a01b03909116815260200161012c565b3480156102d257600080fd5b506101856102e1366004611e3f565b61098c565b3480156102f257600080fd5b50610155610301366004611e7b565b6001600160a01b03918216600090815260986020908152604080832093909416825291909152205460ff1690565b34801561033b57600080fd5b5061018561034a366004611eae565b610997565b34801561035b57600080fd5b5061018561036a366004611cc7565b610a1e565b60006001600160a01b0383166103e05760405162461bcd60e51b815260206004820152602b60248201527f455243313135353a2062616c616e636520717565727920666f7220746865207a60448201526a65726f206164647265737360a81b60648201526084015b60405180910390fd5b5060009081526097602090815260408083206001600160a01b03949094168352929052205490565b60006001600160e01b03198216636cdb3d1360e11b148061043957506001600160e01b031982166303a24d0760e21b145b8061045457506301ffc9a760e01b6001600160e01b03198316145b92915050565b61046381610ab6565b50565b60606099805461047590611f13565b80601f01602080910402602001604051908101604052809291908181526020018280546104a190611f13565b80156104ee5780601f106104c3576101008083540402835291602001916104ee565b820191906000526020600020905b8154815290600101906020018083116104d157829003601f168201915b50505050509050919050565b61051583838360405180602001604052806000815250610ac9565b505050565b61052684848484610b9b565b50505050565b6001600160a01b03851633148061054857506105488533610301565b6105af5760405162461bcd60e51b815260206004820152603260248201527f455243313135353a207472616e736665722063616c6c6572206973206e6f74206044820152711bdddb995c881b9bdc88185c1c1c9bdd995960721b60648201526084016103d7565b6105bc8585858585610ce7565b5050505050565b306001600160a01b037f000000000000000000000000000000000000000000000000000000000000000016141561060c5760405162461bcd60e51b81526004016103d790611f4e565b7f00000000000000000000000000000000000000000000000000000000000000006001600160a01b031661063e610e86565b6001600160a01b0316146106645760405162461bcd60e51b81526004016103d790611f9a565b61066d81610eb4565b6040805160008082526020820190925261046391839190610ede565b606081518351146106ee5760405162461bcd60e51b815260206004820152602960248201527f455243313135353a206163636f756e747320616e6420696473206c656e677468604482015268040dad2e6dac2e8c6d60bb1b60648201526084016103d7565b6000835167ffffffffffffffff81111561070a5761070a611926565b604051908082528060200260200182016040528015610733578160200160208202803683370190505b50905060005b84518110156107ab5761077e85828151811061075757610757611fe6565b602002602001015185838151811061077157610771611fe6565b602002602001015161036f565b82828151811061079057610790611fe6565b60209081029190910101526107a481612012565b9050610739565b509392505050565b306001600160a01b037f00000000000000000000000000000000000000000000000000000000000000001614156107fc5760405162461bcd60e51b81526004016103d790611f4e565b7f00000000000000000000000000000000000000000000000000000000000000006001600160a01b031661082e610e86565b6001600160a01b0316146108545760405162461bcd60e51b81526004016103d790611f9a565b61085d82610eb4565b61086982826001610ede565b5050565b6033546001600160a01b031633146108975760405162461bcd60e51b81526004016103d79061202d565b6108a16000611022565b565b600054610100900460ff166108be5760005460ff16156108c2565b303b155b6109255760405162461bcd60e51b815260206004820152602e60248201527f496e697469616c697a61626c653a20636f6e747261637420697320616c72656160448201526d191e481a5b9a5d1a585b1a5e995960921b60648201526084016103d7565b600054610100900460ff16158015610947576000805461ffff19166101011790555b6109686040518060a00160405280606381526020016123cd60639139611074565b6109706110b4565b6109786110eb565b8015610463576000805461ff001916905550565b610869338383611122565b6001600160a01b0385163314806109b357506109b38533610301565b610a115760405162461bcd60e51b815260206004820152602960248201527f455243313135353a2063616c6c6572206973206e6f74206f776e6572206e6f7260448201526808185c1c1c9bdd995960ba1b60648201526084016103d7565b6105bc8585858585611203565b6033546001600160a01b03163314610a485760405162461bcd60e51b81526004016103d79061202d565b6001600160a01b038116610aad5760405162461bcd60e51b815260206004820152602660248201527f4f776e61626c653a206e6577206f776e657220697320746865207a65726f206160448201526564647265737360d01b60648201526084016103d7565b61046381611022565b8051610869906099906020840190611814565b6001600160a01b038416610aef5760405162461bcd60e51b81526004016103d790612062565b33610b0981600087610b0088611324565b6105bc88611324565b60008481526097602090815260408083206001600160a01b038916845290915281208054859290610b3b9084906120a3565b909155505060408051858152602081018590526001600160a01b0380881692600092918516917fc3d58168c5ae7397731d063d5bbf3d657854427343f4c083240f7aacaa2d0f62910160405180910390a46105bc8160008787878761136f565b6001600160a01b038416610bc15760405162461bcd60e51b81526004016103d790612062565b8151835114610be25760405162461bcd60e51b81526004016103d7906120bb565b3360005b8451811015610c7f57838181518110610c0157610c01611fe6565b602002602001015160976000878481518110610c1f57610c1f611fe6565b602002602001015181526020019081526020016000206000886001600160a01b03166001600160a01b031681526020019081526020016000206000828254610c6791906120a3565b90915550819050610c7781612012565b915050610be6565b50846001600160a01b031660006001600160a01b0316826001600160a01b03167f4a39dc06d4c0dbc64b70af90fd698a233a518aa5d07e595d983b8c0526c8f7fb8787604051610cd0929190612103565b60405180910390a46105bc816000878787876114cb565b8151835114610d085760405162461bcd60e51b81526004016103d7906120bb565b6001600160a01b038416610d2e5760405162461bcd60e51b81526004016103d790612128565b3360005b8451811015610e18576000858281518110610d4f57610d4f611fe6565b602002602001015190506000858381518110610d6d57610d6d611fe6565b60209081029190910181015160008481526097835260408082206001600160a01b038e168352909352919091205490915081811015610dbe5760405162461bcd60e51b81526004016103d79061216d565b60008381526097602090815260408083206001600160a01b038e8116855292528083208585039055908b16825281208054849290610dfd9084906120a3565b9250508190555050505080610e1190612012565b9050610d32565b50846001600160a01b0316866001600160a01b0316826001600160a01b03167f4a39dc06d4c0dbc64b70af90fd698a233a518aa5d07e595d983b8c0526c8f7fb8787604051610e68929190612103565b60405180910390a4610e7e8187878787876114cb565b505050505050565b7f360894a13ba1a3210667c828492db98dca3e2076cc3735a920a3ca505d382bbc546001600160a01b031690565b6033546001600160a01b031633146104635760405162461bcd60e51b81526004016103d79061202d565b6000610ee8610e86565b9050610ef384611586565b600083511180610f005750815b15610f1157610f0f848461162b565b505b7f4910fdfa16fed3260ed0e7147f7cc6da11a60208b5b9406d12a635614ffd9143805460ff166105bc57805460ff191660011781556040516001600160a01b0383166024820152610f9090869060440160408051601f198184030181529190526020810180516001600160e01b0316631b2ce7f360e11b17905261162b565b50805460ff19168155610fa1610e86565b6001600160a01b0316826001600160a01b0316146110195760405162461bcd60e51b815260206004820152602f60248201527f45524331393637557067726164653a207570677261646520627265616b73206660448201526e75727468657220757067726164657360881b60648201526084016103d7565b6105bc85611716565b603380546001600160a01b038381166001600160a01b0319831681179093556040519116919082907f8be0079c531659141344cd1fd0a4f28419497f9722a3daafe3b4186f6b6457e090600090a35050565b600054610100900460ff1661109b5760405162461bcd60e51b81526004016103d7906121b7565b6110a3611756565b6110ab611756565b6104638161177d565b600054610100900460ff166110db5760405162461bcd60e51b81526004016103d7906121b7565b6110e3611756565b6108a16117a4565b600054610100900460ff166111125760405162461bcd60e51b81526004016103d7906121b7565b61111a611756565b6108a1611756565b816001600160a01b0316836001600160a01b031614156111965760405162461bcd60e51b815260206004820152602960248201527f455243313135353a2073657474696e6720617070726f76616c20737461747573604482015268103337b91039b2b63360b91b60648201526084016103d7565b6001600160a01b03838116600081815260986020908152604080832094871680845294825291829020805460ff191686151590811790915591519182527f17307eab39ab6107e8899845ad3d59bd9653f200f220920489ca2b5937696c31910160405180910390a3505050565b6001600160a01b0384166112295760405162461bcd60e51b81526004016103d790612128565b33611239818787610b0088611324565b60008481526097602090815260408083206001600160a01b038a1684529091529020548381101561127c5760405162461bcd60e51b81526004016103d79061216d565b60008581526097602090815260408083206001600160a01b038b81168552925280832087850390559088168252812080548692906112bb9084906120a3565b909155505060408051868152602081018690526001600160a01b03808916928a821692918616917fc3d58168c5ae7397731d063d5bbf3d657854427343f4c083240f7aacaa2d0f62910160405180910390a461131b82888888888861136f565b50505050505050565b6040805160018082528183019092526060916000919060208083019080368337019050509050828160008151811061135e5761135e611fe6565b602090810291909101015292915050565b6001600160a01b0384163b15610e7e5760405163f23a6e6160e01b81526001600160a01b0385169063f23a6e61906113b39089908990889088908890600401612202565b6020604051808303816000875af19250505080156113ee575060408051601f3d908101601f191682019092526113eb91810190612247565b60015b61149b576113fa612264565b806308c379a01415611434575061140f612280565b8061141a5750611436565b8060405162461bcd60e51b81526004016103d79190611a89565b505b60405162461bcd60e51b815260206004820152603460248201527f455243313135353a207472616e7366657220746f206e6f6e20455243313135356044820152732932b1b2b4bb32b91034b6b83632b6b2b73a32b960611b60648201526084016103d7565b6001600160e01b0319811663f23a6e6160e01b1461131b5760405162461bcd60e51b81526004016103d79061230a565b6001600160a01b0384163b15610e7e5760405163bc197c8160e01b81526001600160a01b0385169063bc197c819061150f9089908990889088908890600401612352565b6020604051808303816000875af192505050801561154a575060408051601f3d908101601f1916820190925261154791810190612247565b60015b611556576113fa612264565b6001600160e01b0319811663bc197c8160e01b1461131b5760405162461bcd60e51b81526004016103d79061230a565b803b6115ea5760405162461bcd60e51b815260206004820152602d60248201527f455243313936373a206e657720696d706c656d656e746174696f6e206973206e60448201526c1bdd08184818dbdb9d1c9858dd609a1b60648201526084016103d7565b7f360894a13ba1a3210667c828492db98dca3e2076cc3735a920a3ca505d382bbc80546001600160a01b0319166001600160a01b0392909216919091179055565b6060823b61168a5760405162461bcd60e51b815260206004820152602660248201527f416464726573733a2064656c65676174652063616c6c20746f206e6f6e2d636f6044820152651b9d1c9858dd60d21b60648201526084016103d7565b600080846001600160a01b0316846040516116a591906123b0565b600060405180830381855af49150503d80600081146116e0576040519150601f19603f3d011682016040523d82523d6000602084013e6116e5565b606091505b509150915061170d8282604051806060016040528060278152602001612430602791396117d4565b95945050505050565b61171f81611586565b6040516001600160a01b038216907fbc7cd75a20ee27fd9adebab32041f755214dbc6bffa90cc0225b39da2e5c2d3b90600090a250565b600054610100900460ff166108a15760405162461bcd60e51b81526004016103d7906121b7565b600054610100900460ff1661045a5760405162461bcd60e51b81526004016103d7906121b7565b600054610100900460ff166117cb5760405162461bcd60e51b81526004016103d7906121b7565b6108a133611022565b606083156117e357508161180d565b8251156117f35782518084602001fd5b8160405162461bcd60e51b81526004016103d79190611a89565b9392505050565b82805461182090611f13565b90600052602060002090601f0160209004810192826118425760008555611888565b82601f1061185b57805160ff1916838001178555611888565b82800160010185558215611888579182015b8281111561188857825182559160200191906001019061186d565b50611894929150611898565b5090565b5b808211156118945760008155600101611899565b80356001600160a01b03811681146118c457600080fd5b919050565b600080604083850312156118dc57600080fd5b6118e5836118ad565b946020939093013593505050565b6001600160e01b03198116811461046357600080fd5b60006020828403121561191b57600080fd5b813561180d816118f3565b634e487b7160e01b600052604160045260246000fd5b601f8201601f1916810167ffffffffffffffff8111828210171561196257611962611926565b6040525050565b600067ffffffffffffffff83111561198357611983611926565b60405161199a601f8501601f19166020018261193c565b8091508381528484840111156119af57600080fd5b83836020830137600060208583010152509392505050565b6000602082840312156119d957600080fd5b813567ffffffffffffffff8111156119f057600080fd5b8201601f81018413611a0157600080fd5b611a1084823560208401611969565b949350505050565b600060208284031215611a2a57600080fd5b5035919050565b60005b83811015611a4c578181015183820152602001611a34565b838111156105265750506000910152565b60008151808452611a75816020860160208601611a31565b601f01601f19169290920160200192915050565b60208152600061180d6020830184611a5d565b600080600060608486031215611ab157600080fd5b611aba846118ad565b95602085013595506040909401359392505050565b600067ffffffffffffffff821115611ae957611ae9611926565b5060051b60200190565b600082601f830112611b0457600080fd5b81356020611b1182611acf565b604051611b1e828261193c565b83815260059390931b8501820192828101915086841115611b3e57600080fd5b8286015b84811015611b595780358352918301918301611b42565b509695505050505050565b600082601f830112611b7557600080fd5b61180d83833560208501611969565b60008060008060808587031215611b9a57600080fd5b611ba3856118ad565b9350602085013567ffffffffffffffff80821115611bc057600080fd5b611bcc88838901611af3565b94506040870135915080821115611be257600080fd5b611bee88838901611af3565b93506060870135915080821115611c0457600080fd5b50611c1187828801611b64565b91505092959194509250565b600080600080600060a08688031215611c3557600080fd5b611c3e866118ad565b9450611c4c602087016118ad565b9350604086013567ffffffffffffffff80821115611c6957600080fd5b611c7589838a01611af3565b94506060880135915080821115611c8b57600080fd5b611c9789838a01611af3565b93506080880135915080821115611cad57600080fd5b50611cba88828901611b64565b9150509295509295909350565b600060208284031215611cd957600080fd5b61180d826118ad565b60008060408385031215611cf557600080fd5b823567ffffffffffffffff80821115611d0d57600080fd5b818501915085601f830112611d2157600080fd5b81356020611d2e82611acf565b604051611d3b828261193c565b83815260059390931b8501820192828101915089841115611d5b57600080fd5b948201945b83861015611d8057611d71866118ad565b82529482019490820190611d60565b96505086013592505080821115611d9657600080fd5b50611da385828601611af3565b9150509250929050565b600081518084526020808501945080840160005b83811015611ddd57815187529582019590820190600101611dc1565b509495945050505050565b60208152600061180d6020830184611dad565b60008060408385031215611e0e57600080fd5b611e17836118ad565b9150602083013567ffffffffffffffff811115611e3357600080fd5b611da385828601611b64565b60008060408385031215611e5257600080fd5b611e5b836118ad565b915060208301358015158114611e7057600080fd5b809150509250929050565b60008060408385031215611e8e57600080fd5b611e97836118ad565b9150611ea5602084016118ad565b90509250929050565b600080600080600060a08688031215611ec657600080fd5b611ecf866118ad565b9450611edd602087016118ad565b93506040860135925060608601359150608086013567ffffffffffffffff811115611f0757600080fd5b611cba88828901611b64565b600181811c90821680611f2757607f821691505b60208210811415611f4857634e487b7160e01b600052602260045260246000fd5b50919050565b6020808252602c908201527f46756e6374696f6e206d7573742062652063616c6c6564207468726f7567682060408201526b19195b1959d85d1958d85b1b60a21b606082015260800190565b6020808252602c908201527f46756e6374696f6e206d7573742062652063616c6c6564207468726f7567682060408201526b6163746976652070726f787960a01b606082015260800190565b634e487b7160e01b600052603260045260246000fd5b634e487b7160e01b600052601160045260246000fd5b600060001982141561202657612026611ffc565b5060010190565b6020808252818101527f4f776e61626c653a2063616c6c6572206973206e6f7420746865206f776e6572604082015260600190565b60208082526021908201527f455243313135353a206d696e7420746f20746865207a65726f206164647265736040820152607360f81b606082015260800190565b600082198211156120b6576120b6611ffc565b500190565b60208082526028908201527f455243313135353a2069647320616e6420616d6f756e7473206c656e677468206040820152670dad2e6dac2e8c6d60c31b606082015260800190565b6040815260006121166040830185611dad565b828103602084015261170d8185611dad565b60208082526025908201527f455243313135353a207472616e7366657220746f20746865207a65726f206164604082015264647265737360d81b606082015260800190565b6020808252602a908201527f455243313135353a20696e73756666696369656e742062616c616e636520666f60408201526939103a3930b739b332b960b11b606082015260800190565b6020808252602b908201527f496e697469616c697a61626c653a20636f6e7472616374206973206e6f74206960408201526a6e697469616c697a696e6760a81b606082015260800190565b6001600160a01b03868116825285166020820152604081018490526060810183905260a06080820181905260009061223c90830184611a5d565b979650505050505050565b60006020828403121561225957600080fd5b815161180d816118f3565b600060033d111561227d5760046000803e5060005160e01c5b90565b600060443d101561228e5790565b6040516003193d81016004833e81513d67ffffffffffffffff81602484011181841117156122be57505050505090565b82850191508151818111156122d65750505050505090565b843d87010160208285010111156122f05750505050505090565b6122ff6020828601018761193c565b509095945050505050565b60208082526028908201527f455243313135353a204552433131353552656365697665722072656a656374656040820152676420746f6b656e7360c01b606082015260800190565b6001600160a01b0386811682528516602082015260a06040820181905260009061237e90830186611dad565b82810360608401526123908186611dad565b905082810360808401526123a48185611a5d565b98975050505050505050565b600082516123c2818460208701611a31565b919091019291505056fe68747470733a2f2f697066732e6d6f72616c69732e696f3a323035332f697066732f516d52734674784262646d383864476d703261625956756b69543451646f693147337133314b59426f5744394c722f6d657461646174612f7b69647d2e6a736f6e416464726573733a206c6f772d6c6576656c2064656c65676174652063616c6c206661696c6564a2646970667358221220817e5bc0f5a1a50f29b70697926971fd63b5dbcd604428a996219ebfe111e28664736f6c634300080b0033",
  "immutableReferences": {
    "644": [
      {
        "length": 32,
        "start": 1486
      },
      {
        "length": 32,
        "start": 1550
      },
      {
        "length": 32,
        "start": 1982
      },
      {
        "length": 32,
        "start": 2046
      }
    ]
  },
  "source": "// SPDX-License-Identifier: MIT\npragma solidity ^0.8.11;\n\nimport \"@openzeppelin/contracts-upgradeable/token/ERC1155/ERC1155Upgradeable.sol\";\nimport \"@openzeppelin/contracts-upgradeable/access/OwnableUpgradeable.sol\";\nimport \"@openzeppelin/contracts-upgradeable/proxy/utils/Initializable.sol\";\nimport \"@openzeppelin/contracts-upgradeable/proxy/utils/UUPSUpgradeable.sol\";\n\ncontract ERC1155CustomUpgradeableV1 is\n    Initializable,\n    OwnableUpgradeable,\n    ERC1155Upgradeable,\n    UUPSUpgradeable\n{\n    function initialize() public initializer {\n        __ERC1155_init(\n            \"https://ipfs.moralis.io:2053/ipfs/QmRsFtxBbdm88dGmp2abYVukiT4Qdoi1G3q31KYBoWD9Lr/metadata/{id}.json\"\n        );\n        __Ownable_init();\n        __UUPSUpgradeable_init();\n    }\n\n    function setURI(string memory newuri) public {\n        _setURI(newuri);\n    }\n\n    function mint(\n        address account,\n        uint256 id,\n        uint256 amount\n    ) public {\n        _mint(account, id, amount, \"\");\n    }\n\n    function mintBatch(\n        address to,\n        uint256[] memory ids,\n        uint256[] memory amounts,\n        bytes memory data\n    ) public {\n        _mintBatch(to, ids, amounts, data);\n    }\n\n    function _authorizeUpgrade(address newImplementation) internal override onlyOwner {}\n}\n",
  "sourcePath": "/home/yosephkurniasoenggoro/Documents/GitHub/moralis-upgradeable-smart-contracts/Truffle/contracts/ERC1155CustomUpgradeable/ERC1155CustomUpgradeableV1.sol",
  "compiler": {
    "name": "solc",
    "version": "0.8.11+commit.d7f03943.Emscripten.clang"
  },
  "schemaVersion": "3.4.4",
  "updatedAt": "2022-01-22T13:27:59.167Z",
  "devdoc": {
    "kind": "dev",
    "methods": {
      "balanceOf(address,uint256)": {
        "details": "See {IERC1155-balanceOf}. Requirements: - `account` cannot be the zero address."
      },
      "balanceOfBatch(address[],uint256[])": {
        "details": "See {IERC1155-balanceOfBatch}. Requirements: - `accounts` and `ids` must have the same length."
      },
      "isApprovedForAll(address,address)": {
        "details": "See {IERC1155-isApprovedForAll}."
      },
      "owner()": {
        "details": "Returns the address of the current owner."
      },
      "renounceOwnership()": {
        "details": "Leaves the contract without owner. It will not be possible to call `onlyOwner` functions anymore. Can only be called by the current owner. NOTE: Renouncing ownership will leave the contract without an owner, thereby removing any functionality that is only available to the owner."
      },
      "safeBatchTransferFrom(address,address,uint256[],uint256[],bytes)": {
        "details": "See {IERC1155-safeBatchTransferFrom}."
      },
      "safeTransferFrom(address,address,uint256,uint256,bytes)": {
        "details": "See {IERC1155-safeTransferFrom}."
      },
      "setApprovalForAll(address,bool)": {
        "details": "See {IERC1155-setApprovalForAll}."
      },
      "supportsInterface(bytes4)": {
        "details": "See {IERC165-supportsInterface}."
      },
      "transferOwnership(address)": {
        "details": "Transfers ownership of the contract to a new account (`newOwner`). Can only be called by the current owner."
      },
      "upgradeTo(address)": {
        "details": "Upgrade the implementation of the proxy to `newImplementation`. Calls {_authorizeUpgrade}. Emits an {Upgraded} event."
      },
      "upgradeToAndCall(address,bytes)": {
        "details": "Upgrade the implementation of the proxy to `newImplementation`, and subsequently execute the function call encoded in `data`. Calls {_authorizeUpgrade}. Emits an {Upgraded} event."
      },
      "uri(uint256)": {
        "details": "See {IERC1155MetadataURI-uri}. This implementation returns the same URI for *all* token types. It relies on the token type ID substitution mechanism https://eips.ethereum.org/EIPS/eip-1155#metadata[defined in the EIP]. Clients calling this function must replace the `\\{id\\}` substring with the actual token type ID."
      }
    },
    "version": 1
  },
  "userdoc": {
    "kind": "user",
    "methods": {},
    "version": 1
  }
}