{
  "contractName": "ERC1155CustomUpgradeableV2",
  "abi": [
    {
      "anonymous": false,
      "inputs": [
        {
          "indexed": false,
          "internalType": "address",
          "name": "previousAdmin",
          "type": "address"
        },
        {
          "indexed": false,
          "internalType": "address",
          "name": "newAdmin",
          "type": "address"
        }
      ],
      "name": "AdminChanged",
      "type": "event"
    },
    {
      "anonymous": false,
      "inputs": [
        {
          "indexed": true,
          "internalType": "address",
          "name": "account",
          "type": "address"
        },
        {
          "indexed": true,
          "internalType": "address",
          "name": "operator",
          "type": "address"
        },
        {
          "indexed": false,
          "internalType": "bool",
          "name": "approved",
          "type": "bool"
        }
      ],
      "name": "ApprovalForAll",
      "type": "event"
    },
    {
      "anonymous": false,
      "inputs": [
        {
          "indexed": true,
          "internalType": "address",
          "name": "beacon",
          "type": "address"
        }
      ],
      "name": "BeaconUpgraded",
      "type": "event"
    },
    {
      "anonymous": false,
      "inputs": [
        {
          "indexed": true,
          "internalType": "address",
          "name": "previousOwner",
          "type": "address"
        },
        {
          "indexed": true,
          "internalType": "address",
          "name": "newOwner",
          "type": "address"
        }
      ],
      "name": "OwnershipTransferred",
      "type": "event"
    },
    {
      "anonymous": false,
      "inputs": [
        {
          "indexed": true,
          "internalType": "address",
          "name": "operator",
          "type": "address"
        },
        {
          "indexed": true,
          "internalType": "address",
          "name": "from",
          "type": "address"
        },
        {
          "indexed": true,
          "internalType": "address",
          "name": "to",
          "type": "address"
        },
        {
          "indexed": false,
          "internalType": "uint256[]",
          "name": "ids",
          "type": "uint256[]"
        },
        {
          "indexed": false,
          "internalType": "uint256[]",
          "name": "values",
          "type": "uint256[]"
        }
      ],
      "name": "TransferBatch",
      "type": "event"
    },
    {
      "anonymous": false,
      "inputs": [
        {
          "indexed": true,
          "internalType": "address",
          "name": "operator",
          "type": "address"
        },
        {
          "indexed": true,
          "internalType": "address",
          "name": "from",
          "type": "address"
        },
        {
          "indexed": true,
          "internalType": "address",
          "name": "to",
          "type": "address"
        },
        {
          "indexed": false,
          "internalType": "uint256",
          "name": "id",
          "type": "uint256"
        },
        {
          "indexed": false,
          "internalType": "uint256",
          "name": "value",
          "type": "uint256"
        }
      ],
      "name": "TransferSingle",
      "type": "event"
    },
    {
      "anonymous": false,
      "inputs": [
        {
          "indexed": false,
          "internalType": "string",
          "name": "value",
          "type": "string"
        },
        {
          "indexed": true,
          "internalType": "uint256",
          "name": "id",
          "type": "uint256"
        }
      ],
      "name": "URI",
      "type": "event"
    },
    {
      "anonymous": false,
      "inputs": [
        {
          "indexed": true,
          "internalType": "address",
          "name": "implementation",
          "type": "address"
        }
      ],
      "name": "Upgraded",
      "type": "event"
    },
    {
      "inputs": [
        {
          "internalType": "address",
          "name": "account",
          "type": "address"
        },
        {
          "internalType": "uint256",
          "name": "id",
          "type": "uint256"
        }
      ],
      "name": "balanceOf",
      "outputs": [
        {
          "internalType": "uint256",
          "name": "",
          "type": "uint256"
        }
      ],
      "stateMutability": "view",
      "type": "function"
    },
    {
      "inputs": [
        {
          "internalType": "address[]",
          "name": "accounts",
          "type": "address[]"
        },
        {
          "internalType": "uint256[]",
          "name": "ids",
          "type": "uint256[]"
        }
      ],
      "name": "balanceOfBatch",
      "outputs": [
        {
          "internalType": "uint256[]",
          "name": "",
          "type": "uint256[]"
        }
      ],
      "stateMutability": "view",
      "type": "function"
    },
    {
      "inputs": [
        {
          "internalType": "address",
          "name": "account",
          "type": "address"
        },
        {
          "internalType": "address",
          "name": "operator",
          "type": "address"
        }
      ],
      "name": "isApprovedForAll",
      "outputs": [
        {
          "internalType": "bool",
          "name": "",
          "type": "bool"
        }
      ],
      "stateMutability": "view",
      "type": "function"
    },
    {
      "inputs": [],
      "name": "owner",
      "outputs": [
        {
          "internalType": "address",
          "name": "",
          "type": "address"
        }
      ],
      "stateMutability": "view",
      "type": "function"
    },
    {
      "inputs": [],
      "name": "renounceOwnership",
      "outputs": [],
      "stateMutability": "nonpayable",
      "type": "function"
    },
    {
      "inputs": [
        {
          "internalType": "address",
          "name": "from",
          "type": "address"
        },
        {
          "internalType": "address",
          "name": "to",
          "type": "address"
        },
        {
          "internalType": "uint256[]",
          "name": "ids",
          "type": "uint256[]"
        },
        {
          "internalType": "uint256[]",
          "name": "amounts",
          "type": "uint256[]"
        },
        {
          "internalType": "bytes",
          "name": "data",
          "type": "bytes"
        }
      ],
      "name": "safeBatchTransferFrom",
      "outputs": [],
      "stateMutability": "nonpayable",
      "type": "function"
    },
    {
      "inputs": [
        {
          "internalType": "address",
          "name": "from",
          "type": "address"
        },
        {
          "internalType": "address",
          "name": "to",
          "type": "address"
        },
        {
          "internalType": "uint256",
          "name": "id",
          "type": "uint256"
        },
        {
          "internalType": "uint256",
          "name": "amount",
          "type": "uint256"
        },
        {
          "internalType": "bytes",
          "name": "data",
          "type": "bytes"
        }
      ],
      "name": "safeTransferFrom",
      "outputs": [],
      "stateMutability": "nonpayable",
      "type": "function"
    },
    {
      "inputs": [
        {
          "internalType": "address",
          "name": "operator",
          "type": "address"
        },
        {
          "internalType": "bool",
          "name": "approved",
          "type": "bool"
        }
      ],
      "name": "setApprovalForAll",
      "outputs": [],
      "stateMutability": "nonpayable",
      "type": "function"
    },
    {
      "inputs": [
        {
          "internalType": "bytes4",
          "name": "interfaceId",
          "type": "bytes4"
        }
      ],
      "name": "supportsInterface",
      "outputs": [
        {
          "internalType": "bool",
          "name": "",
          "type": "bool"
        }
      ],
      "stateMutability": "view",
      "type": "function"
    },
    {
      "inputs": [
        {
          "internalType": "address",
          "name": "newOwner",
          "type": "address"
        }
      ],
      "name": "transferOwnership",
      "outputs": [],
      "stateMutability": "nonpayable",
      "type": "function"
    },
    {
      "inputs": [
        {
          "internalType": "address",
          "name": "newImplementation",
          "type": "address"
        }
      ],
      "name": "upgradeTo",
      "outputs": [],
      "stateMutability": "nonpayable",
      "type": "function"
    },
    {
      "inputs": [
        {
          "internalType": "address",
          "name": "newImplementation",
          "type": "address"
        },
        {
          "internalType": "bytes",
          "name": "data",
          "type": "bytes"
        }
      ],
      "name": "upgradeToAndCall",
      "outputs": [],
      "stateMutability": "payable",
      "type": "function"
    },
    {
      "inputs": [
        {
          "internalType": "uint256",
          "name": "",
          "type": "uint256"
        }
      ],
      "name": "uri",
      "outputs": [
        {
          "internalType": "string",
          "name": "",
          "type": "string"
        }
      ],
      "stateMutability": "view",
      "type": "function"
    },
    {
      "inputs": [],
      "name": "initialize",
      "outputs": [],
      "stateMutability": "nonpayable",
      "type": "function"
    },
    {
      "inputs": [
        {
          "internalType": "string",
          "name": "newuri",
          "type": "string"
        }
      ],
      "name": "setURI",
      "outputs": [],
      "stateMutability": "nonpayable",
      "type": "function"
    },
    {
      "inputs": [
        {
          "internalType": "address",
          "name": "account",
          "type": "address"
        },
        {
          "internalType": "uint256",
          "name": "id",
          "type": "uint256"
        },
        {
          "internalType": "uint256",
          "name": "amount",
          "type": "uint256"
        }
      ],
      "name": "mint",
      "outputs": [],
      "stateMutability": "nonpayable",
      "type": "function"
    },
    {
      "inputs": [
        {
          "internalType": "address",
          "name": "to",
          "type": "address"
        },
        {
          "internalType": "uint256[]",
          "name": "ids",
          "type": "uint256[]"
        },
        {
          "internalType": "uint256[]",
          "name": "amounts",
          "type": "uint256[]"
        },
        {
          "internalType": "bytes",
          "name": "data",
          "type": "bytes"
        }
      ],
      "name": "mintBatch",
      "outputs": [],
      "stateMutability": "nonpayable",
      "type": "function"
    }
  ],
  "bytecode": "0x60a06040523060805234801561001457600080fd5b506080516124b5610045600039600081816105d801528181610618015281816107c8015261080801526124b56000f3fe6080604052600436106100fd5760003560e01c80634e1273f4116100955780638da5cb5b116100645780638da5cb5b1461029e578063a22cb465146102c6578063e985e9c5146102e6578063f242432a1461032f578063f2fde38b1461034f57600080fd5b80634e1273f4146102345780634f1ef28614610261578063715018a6146102745780638129fc1c1461028957600080fd5b8063156e29f6116100d1578063156e29f6146101b45780631f7fdffa146101d45780632eb2c2d6146101f45780633659cfe61461021457600080fd5b8062fdd58e1461010257806301ffc9a71461013557806302fe5305146101655780630e89341c14610187575b600080fd5b34801561010e57600080fd5b5061012261011d3660046118d3565b61036f565b6040519081526020015b60405180910390f35b34801561014157600080fd5b50610155610150366004611913565b610408565b604051901515815260200161012c565b34801561017157600080fd5b506101856101803660046119d1565b61045a565b005b34801561019357600080fd5b506101a76101a2366004611a22565b610466565b60405161012c9190611a93565b3480156101c057600080fd5b506101856101cf366004611aa6565b6104fa565b3480156101e057600080fd5b506101856101ef366004611b8e565b610524565b34801561020057600080fd5b5061018561020f366004611c27565b610536565b34801561022057600080fd5b5061018561022f366004611cd1565b6105cd565b34801561024057600080fd5b5061025461024f366004611cec565b610693565b60405161012c9190611df2565b61018561026f366004611e05565b6107bd565b34801561028057600080fd5b50610185610877565b34801561029557600080fd5b506101856108ad565b3480156102aa57600080fd5b506033546040516001600160a01b03909116815260200161012c565b3480156102d257600080fd5b506101856102e1366004611e49565b610996565b3480156102f257600080fd5b50610155610301366004611e85565b6001600160a01b03918216600090815260986020908152604080832093909416825291909152205460ff1690565b34801561033b57600080fd5b5061018561034a366004611eb8565b6109a1565b34801561035b57600080fd5b5061018561036a366004611cd1565b610a28565b60006001600160a01b0383166103e05760405162461bcd60e51b815260206004820152602b60248201527f455243313135353a2062616c616e636520717565727920666f7220746865207a60448201526a65726f206164647265737360a81b60648201526084015b60405180910390fd5b5060009081526097602090815260408083206001600160a01b03949094168352929052205490565b60006001600160e01b03198216636cdb3d1360e11b148061043957506001600160e01b031982166303a24d0760e21b145b8061045457506301ffc9a760e01b6001600160e01b03198316145b92915050565b61046381610ac0565b50565b60606099805461047590611f1d565b80601f01602080910402602001604051908101604052809291908181526020018280546104a190611f1d565b80156104ee5780601f106104c3576101008083540402835291602001916104ee565b820191906000526020600020905b8154815290600101906020018083116104d157829003601f168201915b50505050509050919050565b61051f838361050a846002611f6e565b60405180602001604052806000815250610ad3565b505050565b61053084848484610ba5565b50505050565b6001600160a01b03851633148061055257506105528533610301565b6105b95760405162461bcd60e51b815260206004820152603260248201527f455243313135353a207472616e736665722063616c6c6572206973206e6f74206044820152711bdddb995c881b9bdc88185c1c1c9bdd995960721b60648201526084016103d7565b6105c68585858585610cf1565b5050505050565b306001600160a01b037f00000000000000000000000000000000000000000000000000000000000000001614156106165760405162461bcd60e51b81526004016103d790611f8d565b7f00000000000000000000000000000000000000000000000000000000000000006001600160a01b0316610648610e90565b6001600160a01b03161461066e5760405162461bcd60e51b81526004016103d790611fd9565b61067781610ebe565b6040805160008082526020820190925261046391839190610ee8565b606081518351146106f85760405162461bcd60e51b815260206004820152602960248201527f455243313135353a206163636f756e747320616e6420696473206c656e677468604482015268040dad2e6dac2e8c6d60bb1b60648201526084016103d7565b6000835167ffffffffffffffff81111561071457610714611930565b60405190808252806020026020018201604052801561073d578160200160208202803683370190505b50905060005b84518110156107b55761078885828151811061076157610761612025565b602002602001015185838151811061077b5761077b612025565b602002602001015161036f565b82828151811061079a5761079a612025565b60209081029190910101526107ae8161203b565b9050610743565b509392505050565b306001600160a01b037f00000000000000000000000000000000000000000000000000000000000000001614156108065760405162461bcd60e51b81526004016103d790611f8d565b7f00000000000000000000000000000000000000000000000000000000000000006001600160a01b0316610838610e90565b6001600160a01b03161461085e5760405162461bcd60e51b81526004016103d790611fd9565b61086782610ebe565b61087382826001610ee8565b5050565b6033546001600160a01b031633146108a15760405162461bcd60e51b81526004016103d790612056565b6108ab600061102c565b565b600054610100900460ff166108c85760005460ff16156108cc565b303b155b61092f5760405162461bcd60e51b815260206004820152602e60248201527f496e697469616c697a61626c653a20636f6e747261637420697320616c72656160448201526d191e481a5b9a5d1a585b1a5e995960921b60648201526084016103d7565b600054610100900460ff16158015610951576000805461ffff19166101011790555b6109726040518060a00160405280606381526020016123f66063913961107e565b61097a6110be565b6109826110f5565b8015610463576000805461ff001916905550565b61087333838361112c565b6001600160a01b0385163314806109bd57506109bd8533610301565b610a1b5760405162461bcd60e51b815260206004820152602960248201527f455243313135353a2063616c6c6572206973206e6f74206f776e6572206e6f7260448201526808185c1c1c9bdd995960ba1b60648201526084016103d7565b6105c6858585858561120d565b6033546001600160a01b03163314610a525760405162461bcd60e51b81526004016103d790612056565b6001600160a01b038116610ab75760405162461bcd60e51b815260206004820152602660248201527f4f776e61626c653a206e6577206f776e657220697320746865207a65726f206160448201526564647265737360d01b60648201526084016103d7565b6104638161102c565b805161087390609990602084019061181e565b6001600160a01b038416610af95760405162461bcd60e51b81526004016103d79061208b565b33610b1381600087610b0a8861132e565b6105c68861132e565b60008481526097602090815260408083206001600160a01b038916845290915281208054859290610b459084906120cc565b909155505060408051858152602081018590526001600160a01b0380881692600092918516917fc3d58168c5ae7397731d063d5bbf3d657854427343f4c083240f7aacaa2d0f62910160405180910390a46105c681600087878787611379565b6001600160a01b038416610bcb5760405162461bcd60e51b81526004016103d79061208b565b8151835114610bec5760405162461bcd60e51b81526004016103d7906120e4565b3360005b8451811015610c8957838181518110610c0b57610c0b612025565b602002602001015160976000878481518110610c2957610c29612025565b602002602001015181526020019081526020016000206000886001600160a01b03166001600160a01b031681526020019081526020016000206000828254610c7191906120cc565b90915550819050610c818161203b565b915050610bf0565b50846001600160a01b031660006001600160a01b0316826001600160a01b03167f4a39dc06d4c0dbc64b70af90fd698a233a518aa5d07e595d983b8c0526c8f7fb8787604051610cda92919061212c565b60405180910390a46105c6816000878787876114d5565b8151835114610d125760405162461bcd60e51b81526004016103d7906120e4565b6001600160a01b038416610d385760405162461bcd60e51b81526004016103d790612151565b3360005b8451811015610e22576000858281518110610d5957610d59612025565b602002602001015190506000858381518110610d7757610d77612025565b60209081029190910181015160008481526097835260408082206001600160a01b038e168352909352919091205490915081811015610dc85760405162461bcd60e51b81526004016103d790612196565b60008381526097602090815260408083206001600160a01b038e8116855292528083208585039055908b16825281208054849290610e079084906120cc565b9250508190555050505080610e1b9061203b565b9050610d3c565b50846001600160a01b0316866001600160a01b0316826001600160a01b03167f4a39dc06d4c0dbc64b70af90fd698a233a518aa5d07e595d983b8c0526c8f7fb8787604051610e7292919061212c565b60405180910390a4610e888187878787876114d5565b505050505050565b7f360894a13ba1a3210667c828492db98dca3e2076cc3735a920a3ca505d382bbc546001600160a01b031690565b6033546001600160a01b031633146104635760405162461bcd60e51b81526004016103d790612056565b6000610ef2610e90565b9050610efd84611590565b600083511180610f0a5750815b15610f1b57610f198484611635565b505b7f4910fdfa16fed3260ed0e7147f7cc6da11a60208b5b9406d12a635614ffd9143805460ff166105c657805460ff191660011781556040516001600160a01b0383166024820152610f9a90869060440160408051601f198184030181529190526020810180516001600160e01b0316631b2ce7f360e11b179052611635565b50805460ff19168155610fab610e90565b6001600160a01b0316826001600160a01b0316146110235760405162461bcd60e51b815260206004820152602f60248201527f45524331393637557067726164653a207570677261646520627265616b73206660448201526e75727468657220757067726164657360881b60648201526084016103d7565b6105c685611720565b603380546001600160a01b038381166001600160a01b0319831681179093556040519116919082907f8be0079c531659141344cd1fd0a4f28419497f9722a3daafe3b4186f6b6457e090600090a35050565b600054610100900460ff166110a55760405162461bcd60e51b81526004016103d7906121e0565b6110ad611760565b6110b5611760565b61046381611787565b600054610100900460ff166110e55760405162461bcd60e51b81526004016103d7906121e0565b6110ed611760565b6108ab6117ae565b600054610100900460ff1661111c5760405162461bcd60e51b81526004016103d7906121e0565b611124611760565b6108ab611760565b816001600160a01b0316836001600160a01b031614156111a05760405162461bcd60e51b815260206004820152602960248201527f455243313135353a2073657474696e6720617070726f76616c20737461747573604482015268103337b91039b2b63360b91b60648201526084016103d7565b6001600160a01b03838116600081815260986020908152604080832094871680845294825291829020805460ff191686151590811790915591519182527f17307eab39ab6107e8899845ad3d59bd9653f200f220920489ca2b5937696c31910160405180910390a3505050565b6001600160a01b0384166112335760405162461bcd60e51b81526004016103d790612151565b33611243818787610b0a8861132e565b60008481526097602090815260408083206001600160a01b038a168452909152902054838110156112865760405162461bcd60e51b81526004016103d790612196565b60008581526097602090815260408083206001600160a01b038b81168552925280832087850390559088168252812080548692906112c59084906120cc565b909155505060408051868152602081018690526001600160a01b03808916928a821692918616917fc3d58168c5ae7397731d063d5bbf3d657854427343f4c083240f7aacaa2d0f62910160405180910390a4611325828888888888611379565b50505050505050565b6040805160018082528183019092526060916000919060208083019080368337019050509050828160008151811061136857611368612025565b602090810291909101015292915050565b6001600160a01b0384163b15610e885760405163f23a6e6160e01b81526001600160a01b0385169063f23a6e61906113bd908990899088908890889060040161222b565b6020604051808303816000875af19250505080156113f8575060408051601f3d908101601f191682019092526113f591810190612270565b60015b6114a55761140461228d565b806308c379a0141561143e57506114196122a9565b806114245750611440565b8060405162461bcd60e51b81526004016103d79190611a93565b505b60405162461bcd60e51b815260206004820152603460248201527f455243313135353a207472616e7366657220746f206e6f6e20455243313135356044820152732932b1b2b4bb32b91034b6b83632b6b2b73a32b960611b60648201526084016103d7565b6001600160e01b0319811663f23a6e6160e01b146113255760405162461bcd60e51b81526004016103d790612333565b6001600160a01b0384163b15610e885760405163bc197c8160e01b81526001600160a01b0385169063bc197c8190611519908990899088908890889060040161237b565b6020604051808303816000875af1925050508015611554575060408051601f3d908101601f1916820190925261155191810190612270565b60015b6115605761140461228d565b6001600160e01b0319811663bc197c8160e01b146113255760405162461bcd60e51b81526004016103d790612333565b803b6115f45760405162461bcd60e51b815260206004820152602d60248201527f455243313936373a206e657720696d706c656d656e746174696f6e206973206e60448201526c1bdd08184818dbdb9d1c9858dd609a1b60648201526084016103d7565b7f360894a13ba1a3210667c828492db98dca3e2076cc3735a920a3ca505d382bbc80546001600160a01b0319166001600160a01b0392909216919091179055565b6060823b6116945760405162461bcd60e51b815260206004820152602660248201527f416464726573733a2064656c65676174652063616c6c20746f206e6f6e2d636f6044820152651b9d1c9858dd60d21b60648201526084016103d7565b600080846001600160a01b0316846040516116af91906123d9565b600060405180830381855af49150503d80600081146116ea576040519150601f19603f3d011682016040523d82523d6000602084013e6116ef565b606091505b50915091506117178282604051806060016040528060278152602001612459602791396117de565b95945050505050565b61172981611590565b6040516001600160a01b038216907fbc7cd75a20ee27fd9adebab32041f755214dbc6bffa90cc0225b39da2e5c2d3b90600090a250565b600054610100900460ff166108ab5760405162461bcd60e51b81526004016103d7906121e0565b600054610100900460ff1661045a5760405162461bcd60e51b81526004016103d7906121e0565b600054610100900460ff166117d55760405162461bcd60e51b81526004016103d7906121e0565b6108ab3361102c565b606083156117ed575081611817565b8251156117fd5782518084602001fd5b8160405162461bcd60e51b81526004016103d79190611a93565b9392505050565b82805461182a90611f1d565b90600052602060002090601f01602090048101928261184c5760008555611892565b82601f1061186557805160ff1916838001178555611892565b82800160010185558215611892579182015b82811115611892578251825591602001919060010190611877565b5061189e9291506118a2565b5090565b5b8082111561189e57600081556001016118a3565b80356001600160a01b03811681146118ce57600080fd5b919050565b600080604083850312156118e657600080fd5b6118ef836118b7565b946020939093013593505050565b6001600160e01b03198116811461046357600080fd5b60006020828403121561192557600080fd5b8135611817816118fd565b634e487b7160e01b600052604160045260246000fd5b601f8201601f1916810167ffffffffffffffff8111828210171561196c5761196c611930565b6040525050565b600067ffffffffffffffff83111561198d5761198d611930565b6040516119a4601f8501601f191660200182611946565b8091508381528484840111156119b957600080fd5b83836020830137600060208583010152509392505050565b6000602082840312156119e357600080fd5b813567ffffffffffffffff8111156119fa57600080fd5b8201601f81018413611a0b57600080fd5b611a1a84823560208401611973565b949350505050565b600060208284031215611a3457600080fd5b5035919050565b60005b83811015611a56578181015183820152602001611a3e565b838111156105305750506000910152565b60008151808452611a7f816020860160208601611a3b565b601f01601f19169290920160200192915050565b6020815260006118176020830184611a67565b600080600060608486031215611abb57600080fd5b611ac4846118b7565b95602085013595506040909401359392505050565b600067ffffffffffffffff821115611af357611af3611930565b5060051b60200190565b600082601f830112611b0e57600080fd5b81356020611b1b82611ad9565b604051611b288282611946565b83815260059390931b8501820192828101915086841115611b4857600080fd5b8286015b84811015611b635780358352918301918301611b4c565b509695505050505050565b600082601f830112611b7f57600080fd5b61181783833560208501611973565b60008060008060808587031215611ba457600080fd5b611bad856118b7565b9350602085013567ffffffffffffffff80821115611bca57600080fd5b611bd688838901611afd565b94506040870135915080821115611bec57600080fd5b611bf888838901611afd565b93506060870135915080821115611c0e57600080fd5b50611c1b87828801611b6e565b91505092959194509250565b600080600080600060a08688031215611c3f57600080fd5b611c48866118b7565b9450611c56602087016118b7565b9350604086013567ffffffffffffffff80821115611c7357600080fd5b611c7f89838a01611afd565b94506060880135915080821115611c9557600080fd5b611ca189838a01611afd565b93506080880135915080821115611cb757600080fd5b50611cc488828901611b6e565b9150509295509295909350565b600060208284031215611ce357600080fd5b611817826118b7565b60008060408385031215611cff57600080fd5b823567ffffffffffffffff80821115611d1757600080fd5b818501915085601f830112611d2b57600080fd5b81356020611d3882611ad9565b604051611d458282611946565b83815260059390931b8501820192828101915089841115611d6557600080fd5b948201945b83861015611d8a57611d7b866118b7565b82529482019490820190611d6a565b96505086013592505080821115611da057600080fd5b50611dad85828601611afd565b9150509250929050565b600081518084526020808501945080840160005b83811015611de757815187529582019590820190600101611dcb565b509495945050505050565b6020815260006118176020830184611db7565b60008060408385031215611e1857600080fd5b611e21836118b7565b9150602083013567ffffffffffffffff811115611e3d57600080fd5b611dad85828601611b6e565b60008060408385031215611e5c57600080fd5b611e65836118b7565b915060208301358015158114611e7a57600080fd5b809150509250929050565b60008060408385031215611e9857600080fd5b611ea1836118b7565b9150611eaf602084016118b7565b90509250929050565b600080600080600060a08688031215611ed057600080fd5b611ed9866118b7565b9450611ee7602087016118b7565b93506040860135925060608601359150608086013567ffffffffffffffff811115611f1157600080fd5b611cc488828901611b6e565b600181811c90821680611f3157607f821691505b60208210811415611f5257634e487b7160e01b600052602260045260246000fd5b50919050565b634e487b7160e01b600052601160045260246000fd5b6000816000190483118215151615611f8857611f88611f58565b500290565b6020808252602c908201527f46756e6374696f6e206d7573742062652063616c6c6564207468726f7567682060408201526b19195b1959d85d1958d85b1b60a21b606082015260800190565b6020808252602c908201527f46756e6374696f6e206d7573742062652063616c6c6564207468726f7567682060408201526b6163746976652070726f787960a01b606082015260800190565b634e487b7160e01b600052603260045260246000fd5b600060001982141561204f5761204f611f58565b5060010190565b6020808252818101527f4f776e61626c653a2063616c6c6572206973206e6f7420746865206f776e6572604082015260600190565b60208082526021908201527f455243313135353a206d696e7420746f20746865207a65726f206164647265736040820152607360f81b606082015260800190565b600082198211156120df576120df611f58565b500190565b60208082526028908201527f455243313135353a2069647320616e6420616d6f756e7473206c656e677468206040820152670dad2e6dac2e8c6d60c31b606082015260800190565b60408152600061213f6040830185611db7565b82810360208401526117178185611db7565b60208082526025908201527f455243313135353a207472616e7366657220746f20746865207a65726f206164604082015264647265737360d81b606082015260800190565b6020808252602a908201527f455243313135353a20696e73756666696369656e742062616c616e636520666f60408201526939103a3930b739b332b960b11b606082015260800190565b6020808252602b908201527f496e697469616c697a61626c653a20636f6e7472616374206973206e6f74206960408201526a6e697469616c697a696e6760a81b606082015260800190565b6001600160a01b03868116825285166020820152604081018490526060810183905260a06080820181905260009061226590830184611a67565b979650505050505050565b60006020828403121561228257600080fd5b8151611817816118fd565b600060033d11156122a65760046000803e5060005160e01c5b90565b600060443d10156122b75790565b6040516003193d81016004833e81513d67ffffffffffffffff81602484011181841117156122e757505050505090565b82850191508151818111156122ff5750505050505090565b843d87010160208285010111156123195750505050505090565b61232860208286010187611946565b509095945050505050565b60208082526028908201527f455243313135353a204552433131353552656365697665722072656a656374656040820152676420746f6b656e7360c01b606082015260800190565b6001600160a01b0386811682528516602082015260a0604082018190526000906123a790830186611db7565b82810360608401526123b98186611db7565b905082810360808401526123cd8185611a67565b98975050505050505050565b600082516123eb818460208701611a3b565b919091019291505056fe68747470733a2f2f697066732e6d6f72616c69732e696f3a323035332f697066732f516d52734674784262646d383864476d703261625956756b69543451646f693147337133314b59426f5744394c722f6d657461646174612f7b69647d2e6a736f6e416464726573733a206c6f772d6c6576656c2064656c65676174652063616c6c206661696c6564a26469706673582212201ef68e585bda2deeef6ebf97fc16d0a0996391835bc786f7ab47a30e2c6294e664736f6c634300080b0033",
  "immutableReferences": {
    "644": [
      {
        "length": 32,
        "start": 1496
      },
      {
        "length": 32,
        "start": 1560
      },
      {
        "length": 32,
        "start": 1992
      },
      {
        "length": 32,
        "start": 2056
      }
    ]
  },
  "source": "// SPDX-License-Identifier: MIT\npragma solidity ^0.8.11;\n\nimport \"@openzeppelin/contracts-upgradeable/token/ERC1155/ERC1155Upgradeable.sol\";\nimport \"@openzeppelin/contracts-upgradeable/access/OwnableUpgradeable.sol\";\nimport \"@openzeppelin/contracts-upgradeable/proxy/utils/Initializable.sol\";\nimport \"@openzeppelin/contracts-upgradeable/proxy/utils/UUPSUpgradeable.sol\";\n\ncontract ERC1155CustomUpgradeableV2 is\n    Initializable,\n    OwnableUpgradeable,\n    ERC1155Upgradeable,\n    UUPSUpgradeable\n{\n    function initialize() public initializer {\n        __ERC1155_init(\n            \"https://ipfs.moralis.io:2053/ipfs/QmRsFtxBbdm88dGmp2abYVukiT4Qdoi1G3q31KYBoWD9Lr/metadata/{id}.json\"\n        );\n        __Ownable_init();\n        __UUPSUpgradeable_init();\n    }\n\n    function setURI(string memory newuri) public {\n        _setURI(newuri);\n    }\n\n    function mint(\n        address account,\n        uint256 id,\n        uint256 amount\n    ) public {\n        _mint(account, id, amount * 2, \"\");\n    }\n\n    function mintBatch(\n        address to,\n        uint256[] memory ids,\n        uint256[] memory amounts,\n        bytes memory data\n    ) public {\n        _mintBatch(to, ids, amounts, data);\n    }\n\n    function _authorizeUpgrade(address newImplementation) internal override onlyOwner {}\n}\n",
  "sourcePath": "/home/yosephkurniasoenggoro/Documents/GitHub/moralis-upgradeable-smart-contracts/Truffle/contracts/ERC1155CustomUpgradeable/ERC1155CustomUpgradeableV2.sol",
  "compiler": {
    "name": "solc",
    "version": "0.8.11+commit.d7f03943.Emscripten.clang"
  },
  "schemaVersion": "3.4.4",
  "updatedAt": "2022-01-22T13:27:59.176Z",
  "devdoc": {
    "kind": "dev",
    "methods": {
      "balanceOf(address,uint256)": {
        "details": "See {IERC1155-balanceOf}. Requirements: - `account` cannot be the zero address."
      },
      "balanceOfBatch(address[],uint256[])": {
        "details": "See {IERC1155-balanceOfBatch}. Requirements: - `accounts` and `ids` must have the same length."
      },
      "isApprovedForAll(address,address)": {
        "details": "See {IERC1155-isApprovedForAll}."
      },
      "owner()": {
        "details": "Returns the address of the current owner."
      },
      "renounceOwnership()": {
        "details": "Leaves the contract without owner. It will not be possible to call `onlyOwner` functions anymore. Can only be called by the current owner. NOTE: Renouncing ownership will leave the contract without an owner, thereby removing any functionality that is only available to the owner."
      },
      "safeBatchTransferFrom(address,address,uint256[],uint256[],bytes)": {
        "details": "See {IERC1155-safeBatchTransferFrom}."
      },
      "safeTransferFrom(address,address,uint256,uint256,bytes)": {
        "details": "See {IERC1155-safeTransferFrom}."
      },
      "setApprovalForAll(address,bool)": {
        "details": "See {IERC1155-setApprovalForAll}."
      },
      "supportsInterface(bytes4)": {
        "details": "See {IERC165-supportsInterface}."
      },
      "transferOwnership(address)": {
        "details": "Transfers ownership of the contract to a new account (`newOwner`). Can only be called by the current owner."
      },
      "upgradeTo(address)": {
        "details": "Upgrade the implementation of the proxy to `newImplementation`. Calls {_authorizeUpgrade}. Emits an {Upgraded} event."
      },
      "upgradeToAndCall(address,bytes)": {
        "details": "Upgrade the implementation of the proxy to `newImplementation`, and subsequently execute the function call encoded in `data`. Calls {_authorizeUpgrade}. Emits an {Upgraded} event."
      },
      "uri(uint256)": {
        "details": "See {IERC1155MetadataURI-uri}. This implementation returns the same URI for *all* token types. It relies on the token type ID substitution mechanism https://eips.ethereum.org/EIPS/eip-1155#metadata[defined in the EIP]. Clients calling this function must replace the `\\{id\\}` substring with the actual token type ID."
      }
    },
    "version": 1
  },
  "userdoc": {
    "kind": "user",
    "methods": {},
    "version": 1
  }
}