{
  "contractName": "ERC1155CustomUpgradeableV1",
  "abi": [
    {
      "anonymous": false,
      "inputs": [
        {
          "indexed": false,
          "internalType": "address",
          "name": "previousAdmin",
          "type": "address"
        },
        {
          "indexed": false,
          "internalType": "address",
          "name": "newAdmin",
          "type": "address"
        }
      ],
      "name": "AdminChanged",
      "type": "event"
    },
    {
      "anonymous": false,
      "inputs": [
        {
          "indexed": true,
          "internalType": "address",
          "name": "account",
          "type": "address"
        },
        {
          "indexed": true,
          "internalType": "address",
          "name": "operator",
          "type": "address"
        },
        {
          "indexed": false,
          "internalType": "bool",
          "name": "approved",
          "type": "bool"
        }
      ],
      "name": "ApprovalForAll",
      "type": "event"
    },
    {
      "anonymous": false,
      "inputs": [
        {
          "indexed": true,
          "internalType": "address",
          "name": "beacon",
          "type": "address"
        }
      ],
      "name": "BeaconUpgraded",
      "type": "event"
    },
    {
      "anonymous": false,
      "inputs": [
        {
          "indexed": true,
          "internalType": "address",
          "name": "operator",
          "type": "address"
        },
        {
          "indexed": true,
          "internalType": "address",
          "name": "from",
          "type": "address"
        },
        {
          "indexed": true,
          "internalType": "address",
          "name": "to",
          "type": "address"
        },
        {
          "indexed": false,
          "internalType": "uint256[]",
          "name": "ids",
          "type": "uint256[]"
        },
        {
          "indexed": false,
          "internalType": "uint256[]",
          "name": "values",
          "type": "uint256[]"
        }
      ],
      "name": "TransferBatch",
      "type": "event"
    },
    {
      "anonymous": false,
      "inputs": [
        {
          "indexed": true,
          "internalType": "address",
          "name": "operator",
          "type": "address"
        },
        {
          "indexed": true,
          "internalType": "address",
          "name": "from",
          "type": "address"
        },
        {
          "indexed": true,
          "internalType": "address",
          "name": "to",
          "type": "address"
        },
        {
          "indexed": false,
          "internalType": "uint256",
          "name": "id",
          "type": "uint256"
        },
        {
          "indexed": false,
          "internalType": "uint256",
          "name": "value",
          "type": "uint256"
        }
      ],
      "name": "TransferSingle",
      "type": "event"
    },
    {
      "anonymous": false,
      "inputs": [
        {
          "indexed": false,
          "internalType": "string",
          "name": "value",
          "type": "string"
        },
        {
          "indexed": true,
          "internalType": "uint256",
          "name": "id",
          "type": "uint256"
        }
      ],
      "name": "URI",
      "type": "event"
    },
    {
      "anonymous": false,
      "inputs": [
        {
          "indexed": true,
          "internalType": "address",
          "name": "implementation",
          "type": "address"
        }
      ],
      "name": "Upgraded",
      "type": "event"
    },
    {
      "inputs": [
        {
          "internalType": "address",
          "name": "account",
          "type": "address"
        },
        {
          "internalType": "uint256",
          "name": "id",
          "type": "uint256"
        }
      ],
      "name": "balanceOf",
      "outputs": [
        {
          "internalType": "uint256",
          "name": "",
          "type": "uint256"
        }
      ],
      "stateMutability": "view",
      "type": "function"
    },
    {
      "inputs": [
        {
          "internalType": "address[]",
          "name": "accounts",
          "type": "address[]"
        },
        {
          "internalType": "uint256[]",
          "name": "ids",
          "type": "uint256[]"
        }
      ],
      "name": "balanceOfBatch",
      "outputs": [
        {
          "internalType": "uint256[]",
          "name": "",
          "type": "uint256[]"
        }
      ],
      "stateMutability": "view",
      "type": "function"
    },
    {
      "inputs": [
        {
          "internalType": "address",
          "name": "account",
          "type": "address"
        },
        {
          "internalType": "address",
          "name": "operator",
          "type": "address"
        }
      ],
      "name": "isApprovedForAll",
      "outputs": [
        {
          "internalType": "bool",
          "name": "",
          "type": "bool"
        }
      ],
      "stateMutability": "view",
      "type": "function"
    },
    {
      "inputs": [
        {
          "internalType": "address",
          "name": "from",
          "type": "address"
        },
        {
          "internalType": "address",
          "name": "to",
          "type": "address"
        },
        {
          "internalType": "uint256[]",
          "name": "ids",
          "type": "uint256[]"
        },
        {
          "internalType": "uint256[]",
          "name": "amounts",
          "type": "uint256[]"
        },
        {
          "internalType": "bytes",
          "name": "data",
          "type": "bytes"
        }
      ],
      "name": "safeBatchTransferFrom",
      "outputs": [],
      "stateMutability": "nonpayable",
      "type": "function"
    },
    {
      "inputs": [
        {
          "internalType": "address",
          "name": "from",
          "type": "address"
        },
        {
          "internalType": "address",
          "name": "to",
          "type": "address"
        },
        {
          "internalType": "uint256",
          "name": "id",
          "type": "uint256"
        },
        {
          "internalType": "uint256",
          "name": "amount",
          "type": "uint256"
        },
        {
          "internalType": "bytes",
          "name": "data",
          "type": "bytes"
        }
      ],
      "name": "safeTransferFrom",
      "outputs": [],
      "stateMutability": "nonpayable",
      "type": "function"
    },
    {
      "inputs": [
        {
          "internalType": "address",
          "name": "operator",
          "type": "address"
        },
        {
          "internalType": "bool",
          "name": "approved",
          "type": "bool"
        }
      ],
      "name": "setApprovalForAll",
      "outputs": [],
      "stateMutability": "nonpayable",
      "type": "function"
    },
    {
      "inputs": [
        {
          "internalType": "bytes4",
          "name": "interfaceId",
          "type": "bytes4"
        }
      ],
      "name": "supportsInterface",
      "outputs": [
        {
          "internalType": "bool",
          "name": "",
          "type": "bool"
        }
      ],
      "stateMutability": "view",
      "type": "function"
    },
    {
      "inputs": [
        {
          "internalType": "address",
          "name": "newImplementation",
          "type": "address"
        }
      ],
      "name": "upgradeTo",
      "outputs": [],
      "stateMutability": "nonpayable",
      "type": "function"
    },
    {
      "inputs": [
        {
          "internalType": "address",
          "name": "newImplementation",
          "type": "address"
        },
        {
          "internalType": "bytes",
          "name": "data",
          "type": "bytes"
        }
      ],
      "name": "upgradeToAndCall",
      "outputs": [],
      "stateMutability": "payable",
      "type": "function"
    },
    {
      "inputs": [
        {
          "internalType": "uint256",
          "name": "",
          "type": "uint256"
        }
      ],
      "name": "uri",
      "outputs": [
        {
          "internalType": "string",
          "name": "",
          "type": "string"
        }
      ],
      "stateMutability": "view",
      "type": "function"
    },
    {
      "inputs": [],
      "name": "initialize",
      "outputs": [],
      "stateMutability": "nonpayable",
      "type": "function"
    },
    {
      "inputs": [
        {
          "internalType": "string",
          "name": "newuri",
          "type": "string"
        }
      ],
      "name": "setURI",
      "outputs": [],
      "stateMutability": "nonpayable",
      "type": "function"
    },
    {
      "inputs": [
        {
          "internalType": "address",
          "name": "account",
          "type": "address"
        },
        {
          "internalType": "uint256",
          "name": "id",
          "type": "uint256"
        },
        {
          "internalType": "uint256",
          "name": "amount",
          "type": "uint256"
        }
      ],
      "name": "mint",
      "outputs": [],
      "stateMutability": "nonpayable",
      "type": "function"
    },
    {
      "inputs": [
        {
          "internalType": "address",
          "name": "to",
          "type": "address"
        },
        {
          "internalType": "uint256[]",
          "name": "ids",
          "type": "uint256[]"
        },
        {
          "internalType": "uint256[]",
          "name": "amounts",
          "type": "uint256[]"
        },
        {
          "internalType": "bytes",
          "name": "data",
          "type": "bytes"
        }
      ],
      "name": "mintBatch",
      "outputs": [],
      "stateMutability": "nonpayable",
      "type": "function"
    }
  ],
  "bytecode": "0x60a06040523060805234801561001457600080fd5b50608051612210610045600039600081816105500152818161059001528181610737015261077701526122106000f3fe6080604052600436106100dc5760003560e01c80633659cfe61161007f5780638129fc1c116100595780638129fc1c14610253578063a22cb46514610268578063e985e9c514610288578063f242432a146102d157600080fd5b80633659cfe6146101f35780634e1273f4146102135780634f1ef2861461024057600080fd5b80630e89341c116100bb5780630e89341c14610166578063156e29f6146101935780631f7fdffa146101b35780632eb2c2d6146101d357600080fd5b8062fdd58e146100e157806301ffc9a71461011457806302fe530514610144575b600080fd5b3480156100ed57600080fd5b506101016100fc366004611682565b6102f1565b6040519081526020015b60405180910390f35b34801561012057600080fd5b5061013461012f3660046116c2565b61038a565b604051901515815260200161010b565b34801561015057600080fd5b5061016461015f366004611780565b6103dc565b005b34801561017257600080fd5b506101866101813660046117d1565b6103e8565b60405161010b9190611842565b34801561019f57600080fd5b506101646101ae366004611855565b61047c565b3480156101bf57600080fd5b506101646101ce36600461193d565b61049c565b3480156101df57600080fd5b506101646101ee3660046119d6565b6104ae565b3480156101ff57600080fd5b5061016461020e366004611a80565b610545565b34801561021f57600080fd5b5061023361022e366004611a9b565b610602565b60405161010b9190611ba1565b61016461024e366004611bb4565b61072c565b34801561025f57600080fd5b506101646107dd565b34801561027457600080fd5b50610164610283366004611bf8565b6108be565b34801561029457600080fd5b506101346102a3366004611c34565b6001600160a01b03918216600090815260666020908152604080832093909416825291909152205460ff1690565b3480156102dd57600080fd5b506101646102ec366004611c67565b6108c9565b60006001600160a01b0383166103625760405162461bcd60e51b815260206004820152602b60248201527f455243313135353a2062616c616e636520717565727920666f7220746865207a60448201526a65726f206164647265737360a81b60648201526084015b60405180910390fd5b5060009081526065602090815260408083206001600160a01b03949094168352929052205490565b60006001600160e01b03198216636cdb3d1360e11b14806103bb57506001600160e01b031982166303a24d0760e21b145b806103d657506301ffc9a760e01b6001600160e01b03198316145b92915050565b6103e581610950565b50565b6060606780546103f790611ccc565b80601f016020809104026020016040519081016040528092919081815260200182805461042390611ccc565b80156104705780601f1061044557610100808354040283529160200191610470565b820191906000526020600020905b81548152906001019060200180831161045357829003601f168201915b50505050509050919050565b61049783838360405180602001604052806000815250610963565b505050565b6104a884848484610a35565b50505050565b6001600160a01b0385163314806104ca57506104ca85336102a3565b6105315760405162461bcd60e51b815260206004820152603260248201527f455243313135353a207472616e736665722063616c6c6572206973206e6f74206044820152711bdddb995c881b9bdc88185c1c1c9bdd995960721b6064820152608401610359565b61053e8585858585610b81565b5050505050565b306001600160a01b037f000000000000000000000000000000000000000000000000000000000000000016141561058e5760405162461bcd60e51b815260040161035990611d07565b7f00000000000000000000000000000000000000000000000000000000000000006001600160a01b03166105c0610d20565b6001600160a01b0316146105e65760405162461bcd60e51b815260040161035990611d53565b604080516000808252602082019092526103e591839190610d4e565b606081518351146106675760405162461bcd60e51b815260206004820152602960248201527f455243313135353a206163636f756e747320616e6420696473206c656e677468604482015268040dad2e6dac2e8c6d60bb1b6064820152608401610359565b6000835167ffffffffffffffff811115610683576106836116df565b6040519080825280602002602001820160405280156106ac578160200160208202803683370190505b50905060005b8451811015610724576106f78582815181106106d0576106d0611d9f565b60200260200101518583815181106106ea576106ea611d9f565b60200260200101516102f1565b82828151811061070957610709611d9f565b602090810291909101015261071d81611dcb565b90506106b2565b509392505050565b306001600160a01b037f00000000000000000000000000000000000000000000000000000000000000001614156107755760405162461bcd60e51b815260040161035990611d07565b7f00000000000000000000000000000000000000000000000000000000000000006001600160a01b03166107a7610d20565b6001600160a01b0316146107cd5760405162461bcd60e51b815260040161035990611d53565b6107d982826001610d4e565b5050565b600054610100900460ff166107f85760005460ff16156107fc565b303b155b61085f5760405162461bcd60e51b815260206004820152602e60248201527f496e697469616c697a61626c653a20636f6e747261637420697320616c72656160448201526d191e481a5b9a5d1a585b1a5e995960921b6064820152608401610359565b600054610100900460ff16158015610881576000805461ffff19166101011790555b6108a26040518060a001604052806063815260200161215160639139610e92565b6108aa610ed2565b80156103e5576000805461ff001916905550565b6107d9338383610f0b565b6001600160a01b0385163314806108e557506108e585336102a3565b6109435760405162461bcd60e51b815260206004820152602960248201527f455243313135353a2063616c6c6572206973206e6f74206f776e6572206e6f7260448201526808185c1c1c9bdd995960ba1b6064820152608401610359565b61053e8585858585610fec565b80516107d99060679060208401906115cd565b6001600160a01b0384166109895760405162461bcd60e51b815260040161035990611de6565b336109a38160008761099a8861110d565b61053e8861110d565b60008481526065602090815260408083206001600160a01b0389168452909152812080548592906109d5908490611e27565b909155505060408051858152602081018590526001600160a01b0380881692600092918516917fc3d58168c5ae7397731d063d5bbf3d657854427343f4c083240f7aacaa2d0f62910160405180910390a461053e81600087878787611158565b6001600160a01b038416610a5b5760405162461bcd60e51b815260040161035990611de6565b8151835114610a7c5760405162461bcd60e51b815260040161035990611e3f565b3360005b8451811015610b1957838181518110610a9b57610a9b611d9f565b602002602001015160656000878481518110610ab957610ab9611d9f565b602002602001015181526020019081526020016000206000886001600160a01b03166001600160a01b031681526020019081526020016000206000828254610b019190611e27565b90915550819050610b1181611dcb565b915050610a80565b50846001600160a01b031660006001600160a01b0316826001600160a01b03167f4a39dc06d4c0dbc64b70af90fd698a233a518aa5d07e595d983b8c0526c8f7fb8787604051610b6a929190611e87565b60405180910390a461053e816000878787876112b4565b8151835114610ba25760405162461bcd60e51b815260040161035990611e3f565b6001600160a01b038416610bc85760405162461bcd60e51b815260040161035990611eac565b3360005b8451811015610cb2576000858281518110610be957610be9611d9f565b602002602001015190506000858381518110610c0757610c07611d9f565b60209081029190910181015160008481526065835260408082206001600160a01b038e168352909352919091205490915081811015610c585760405162461bcd60e51b815260040161035990611ef1565b60008381526065602090815260408083206001600160a01b038e8116855292528083208585039055908b16825281208054849290610c97908490611e27565b9250508190555050505080610cab90611dcb565b9050610bcc565b50846001600160a01b0316866001600160a01b0316826001600160a01b03167f4a39dc06d4c0dbc64b70af90fd698a233a518aa5d07e595d983b8c0526c8f7fb8787604051610d02929190611e87565b60405180910390a4610d188187878787876112b4565b505050505050565b7f360894a13ba1a3210667c828492db98dca3e2076cc3735a920a3ca505d382bbc546001600160a01b031690565b6000610d58610d20565b9050610d638461136f565b600083511180610d705750815b15610d8157610d7f8484611414565b505b7f4910fdfa16fed3260ed0e7147f7cc6da11a60208b5b9406d12a635614ffd9143805460ff1661053e57805460ff191660011781556040516001600160a01b0383166024820152610e0090869060440160408051601f198184030181529190526020810180516001600160e01b0316631b2ce7f360e11b179052611414565b50805460ff19168155610e11610d20565b6001600160a01b0316826001600160a01b031614610e895760405162461bcd60e51b815260206004820152602f60248201527f45524331393637557067726164653a207570677261646520627265616b73206660448201526e75727468657220757067726164657360881b6064820152608401610359565b61053e856114ff565b600054610100900460ff16610eb95760405162461bcd60e51b815260040161035990611f3b565b610ec161153f565b610ec961153f565b6103e581611566565b600054610100900460ff16610ef95760405162461bcd60e51b815260040161035990611f3b565b610f0161153f565b610f0961153f565b565b816001600160a01b0316836001600160a01b03161415610f7f5760405162461bcd60e51b815260206004820152602960248201527f455243313135353a2073657474696e6720617070726f76616c20737461747573604482015268103337b91039b2b63360b91b6064820152608401610359565b6001600160a01b03838116600081815260666020908152604080832094871680845294825291829020805460ff191686151590811790915591519182527f17307eab39ab6107e8899845ad3d59bd9653f200f220920489ca2b5937696c31910160405180910390a3505050565b6001600160a01b0384166110125760405162461bcd60e51b815260040161035990611eac565b3361102281878761099a8861110d565b60008481526065602090815260408083206001600160a01b038a168452909152902054838110156110655760405162461bcd60e51b815260040161035990611ef1565b60008581526065602090815260408083206001600160a01b038b81168552925280832087850390559088168252812080548692906110a4908490611e27565b909155505060408051868152602081018690526001600160a01b03808916928a821692918616917fc3d58168c5ae7397731d063d5bbf3d657854427343f4c083240f7aacaa2d0f62910160405180910390a4611104828888888888611158565b50505050505050565b6040805160018082528183019092526060916000919060208083019080368337019050509050828160008151811061114757611147611d9f565b602090810291909101015292915050565b6001600160a01b0384163b15610d185760405163f23a6e6160e01b81526001600160a01b0385169063f23a6e619061119c9089908990889088908890600401611f86565b6020604051808303816000875af19250505080156111d7575060408051601f3d908101601f191682019092526111d491810190611fcb565b60015b611284576111e3611fe8565b806308c379a0141561121d57506111f8612004565b80611203575061121f565b8060405162461bcd60e51b81526004016103599190611842565b505b60405162461bcd60e51b815260206004820152603460248201527f455243313135353a207472616e7366657220746f206e6f6e20455243313135356044820152732932b1b2b4bb32b91034b6b83632b6b2b73a32b960611b6064820152608401610359565b6001600160e01b0319811663f23a6e6160e01b146111045760405162461bcd60e51b81526004016103599061208e565b6001600160a01b0384163b15610d185760405163bc197c8160e01b81526001600160a01b0385169063bc197c81906112f890899089908890889088906004016120d6565b6020604051808303816000875af1925050508015611333575060408051601f3d908101601f1916820190925261133091810190611fcb565b60015b61133f576111e3611fe8565b6001600160e01b0319811663bc197c8160e01b146111045760405162461bcd60e51b81526004016103599061208e565b803b6113d35760405162461bcd60e51b815260206004820152602d60248201527f455243313936373a206e657720696d706c656d656e746174696f6e206973206e60448201526c1bdd08184818dbdb9d1c9858dd609a1b6064820152608401610359565b7f360894a13ba1a3210667c828492db98dca3e2076cc3735a920a3ca505d382bbc80546001600160a01b0319166001600160a01b0392909216919091179055565b6060823b6114735760405162461bcd60e51b815260206004820152602660248201527f416464726573733a2064656c65676174652063616c6c20746f206e6f6e2d636f6044820152651b9d1c9858dd60d21b6064820152608401610359565b600080846001600160a01b03168460405161148e9190612134565b600060405180830381855af49150503d80600081146114c9576040519150601f19603f3d011682016040523d82523d6000602084013e6114ce565b606091505b50915091506114f682826040518060600160405280602781526020016121b46027913961158d565b95945050505050565b6115088161136f565b6040516001600160a01b038216907fbc7cd75a20ee27fd9adebab32041f755214dbc6bffa90cc0225b39da2e5c2d3b90600090a250565b600054610100900460ff16610f095760405162461bcd60e51b815260040161035990611f3b565b600054610100900460ff166103dc5760405162461bcd60e51b815260040161035990611f3b565b6060831561159c5750816115c6565b8251156115ac5782518084602001fd5b8160405162461bcd60e51b81526004016103599190611842565b9392505050565b8280546115d990611ccc565b90600052602060002090601f0160209004810192826115fb5760008555611641565b82601f1061161457805160ff1916838001178555611641565b82800160010185558215611641579182015b82811115611641578251825591602001919060010190611626565b5061164d929150611651565b5090565b5b8082111561164d5760008155600101611652565b80356001600160a01b038116811461167d57600080fd5b919050565b6000806040838503121561169557600080fd5b61169e83611666565b946020939093013593505050565b6001600160e01b0319811681146103e557600080fd5b6000602082840312156116d457600080fd5b81356115c6816116ac565b634e487b7160e01b600052604160045260246000fd5b601f8201601f1916810167ffffffffffffffff8111828210171561171b5761171b6116df565b6040525050565b600067ffffffffffffffff83111561173c5761173c6116df565b604051611753601f8501601f1916602001826116f5565b80915083815284848401111561176857600080fd5b83836020830137600060208583010152509392505050565b60006020828403121561179257600080fd5b813567ffffffffffffffff8111156117a957600080fd5b8201601f810184136117ba57600080fd5b6117c984823560208401611722565b949350505050565b6000602082840312156117e357600080fd5b5035919050565b60005b838110156118055781810151838201526020016117ed565b838111156104a85750506000910152565b6000815180845261182e8160208601602086016117ea565b601f01601f19169290920160200192915050565b6020815260006115c66020830184611816565b60008060006060848603121561186a57600080fd5b61187384611666565b95602085013595506040909401359392505050565b600067ffffffffffffffff8211156118a2576118a26116df565b5060051b60200190565b600082601f8301126118bd57600080fd5b813560206118ca82611888565b6040516118d782826116f5565b83815260059390931b85018201928281019150868411156118f757600080fd5b8286015b8481101561191257803583529183019183016118fb565b509695505050505050565b600082601f83011261192e57600080fd5b6115c683833560208501611722565b6000806000806080858703121561195357600080fd5b61195c85611666565b9350602085013567ffffffffffffffff8082111561197957600080fd5b611985888389016118ac565b9450604087013591508082111561199b57600080fd5b6119a7888389016118ac565b935060608701359150808211156119bd57600080fd5b506119ca8782880161191d565b91505092959194509250565b600080600080600060a086880312156119ee57600080fd5b6119f786611666565b9450611a0560208701611666565b9350604086013567ffffffffffffffff80821115611a2257600080fd5b611a2e89838a016118ac565b94506060880135915080821115611a4457600080fd5b611a5089838a016118ac565b93506080880135915080821115611a6657600080fd5b50611a738882890161191d565b9150509295509295909350565b600060208284031215611a9257600080fd5b6115c682611666565b60008060408385031215611aae57600080fd5b823567ffffffffffffffff80821115611ac657600080fd5b818501915085601f830112611ada57600080fd5b81356020611ae782611888565b604051611af482826116f5565b83815260059390931b8501820192828101915089841115611b1457600080fd5b948201945b83861015611b3957611b2a86611666565b82529482019490820190611b19565b96505086013592505080821115611b4f57600080fd5b50611b5c858286016118ac565b9150509250929050565b600081518084526020808501945080840160005b83811015611b9657815187529582019590820190600101611b7a565b509495945050505050565b6020815260006115c66020830184611b66565b60008060408385031215611bc757600080fd5b611bd083611666565b9150602083013567ffffffffffffffff811115611bec57600080fd5b611b5c8582860161191d565b60008060408385031215611c0b57600080fd5b611c1483611666565b915060208301358015158114611c2957600080fd5b809150509250929050565b60008060408385031215611c4757600080fd5b611c5083611666565b9150611c5e60208401611666565b90509250929050565b600080600080600060a08688031215611c7f57600080fd5b611c8886611666565b9450611c9660208701611666565b93506040860135925060608601359150608086013567ffffffffffffffff811115611cc057600080fd5b611a738882890161191d565b600181811c90821680611ce057607f821691505b60208210811415611d0157634e487b7160e01b600052602260045260246000fd5b50919050565b6020808252602c908201527f46756e6374696f6e206d7573742062652063616c6c6564207468726f7567682060408201526b19195b1959d85d1958d85b1b60a21b606082015260800190565b6020808252602c908201527f46756e6374696f6e206d7573742062652063616c6c6564207468726f7567682060408201526b6163746976652070726f787960a01b606082015260800190565b634e487b7160e01b600052603260045260246000fd5b634e487b7160e01b600052601160045260246000fd5b6000600019821415611ddf57611ddf611db5565b5060010190565b60208082526021908201527f455243313135353a206d696e7420746f20746865207a65726f206164647265736040820152607360f81b606082015260800190565b60008219821115611e3a57611e3a611db5565b500190565b60208082526028908201527f455243313135353a2069647320616e6420616d6f756e7473206c656e677468206040820152670dad2e6dac2e8c6d60c31b606082015260800190565b604081526000611e9a6040830185611b66565b82810360208401526114f68185611b66565b60208082526025908201527f455243313135353a207472616e7366657220746f20746865207a65726f206164604082015264647265737360d81b606082015260800190565b6020808252602a908201527f455243313135353a20696e73756666696369656e742062616c616e636520666f60408201526939103a3930b739b332b960b11b606082015260800190565b6020808252602b908201527f496e697469616c697a61626c653a20636f6e7472616374206973206e6f74206960408201526a6e697469616c697a696e6760a81b606082015260800190565b6001600160a01b03868116825285166020820152604081018490526060810183905260a060808201819052600090611fc090830184611816565b979650505050505050565b600060208284031215611fdd57600080fd5b81516115c6816116ac565b600060033d11156120015760046000803e5060005160e01c5b90565b600060443d10156120125790565b6040516003193d81016004833e81513d67ffffffffffffffff816024840111818411171561204257505050505090565b828501915081518181111561205a5750505050505090565b843d87010160208285010111156120745750505050505090565b612083602082860101876116f5565b509095945050505050565b60208082526028908201527f455243313135353a204552433131353552656365697665722072656a656374656040820152676420746f6b656e7360c01b606082015260800190565b6001600160a01b0386811682528516602082015260a06040820181905260009061210290830186611b66565b82810360608401526121148186611b66565b905082810360808401526121288185611816565b98975050505050505050565b600082516121468184602087016117ea565b919091019291505056fe68747470733a2f2f697066732e6d6f72616c69732e696f3a323035332f697066732f516d52734674784262646d383864476d703261625956756b69543451646f693147337133314b59426f5744394c722f6d657461646174612f7b69647d2e6a736f6e416464726573733a206c6f772d6c6576656c2064656c65676174652063616c6c206661696c6564a26469706673582212203ed8d5b2d3cab9b793a634e62fb5949aa9c8c7575f13f22330cb4c622aa28f6164736f6c634300080b0033",
  "immutableReferences": {
    "644": [
      {
        "length": 32,
        "start": 1360
      },
      {
        "length": 32,
        "start": 1424
      },
      {
        "length": 32,
        "start": 1847
      },
      {
        "length": 32,
        "start": 1911
      }
    ]
  },
  "source": "// SPDX-License-Identifier: MIT\npragma solidity ^0.8.11;\n\nimport \"@openzeppelin/contracts-upgradeable/token/ERC1155/ERC1155Upgradeable.sol\";\nimport \"@openzeppelin/contracts-upgradeable/access/OwnableUpgradeable.sol\";\nimport \"@openzeppelin/contracts-upgradeable/proxy/utils/Initializable.sol\";\nimport \"@openzeppelin/contracts-upgradeable/proxy/utils/UUPSUpgradeable.sol\";\n\ncontract ERC1155CustomUpgradeableV1 is\n    Initializable,\n    ERC1155Upgradeable,\n    UUPSUpgradeable\n{\n    function initialize() public initializer {\n        __ERC1155_init(\n            \"https://ipfs.moralis.io:2053/ipfs/QmRsFtxBbdm88dGmp2abYVukiT4Qdoi1G3q31KYBoWD9Lr/metadata/{id}.json\"\n        );\n        __UUPSUpgradeable_init();\n    }\n\n    function setURI(string memory newuri) public {\n        _setURI(newuri);\n    }\n\n    function mint(\n        address account,\n        uint256 id,\n        uint256 amount\n    ) public {\n        _mint(account, id, amount, \"\");\n    }\n\n    function mintBatch(\n        address to,\n        uint256[] memory ids,\n        uint256[] memory amounts,\n        bytes memory data\n    ) public {\n        _mintBatch(to, ids, amounts, data);\n    }\n\n    function _authorizeUpgrade(address newImplementation) internal override {}\n}\n",
  "sourcePath": "/home/yosephkurniasoenggoro/Documents/GitHub/moralis-upgradeable-smart-contracts/Truffle/contracts/ERC1155CustomUpgradeable/ERC1155CustomUpgradeableV1.sol",
  "compiler": {
    "name": "solc",
    "version": "0.8.11+commit.d7f03943.Emscripten.clang"
  },
  "schemaVersion": "3.4.4",
  "updatedAt": "2022-01-18T18:32:59.973Z",
  "devdoc": {
    "kind": "dev",
    "methods": {
      "balanceOf(address,uint256)": {
        "details": "See {IERC1155-balanceOf}. Requirements: - `account` cannot be the zero address."
      },
      "balanceOfBatch(address[],uint256[])": {
        "details": "See {IERC1155-balanceOfBatch}. Requirements: - `accounts` and `ids` must have the same length."
      },
      "isApprovedForAll(address,address)": {
        "details": "See {IERC1155-isApprovedForAll}."
      },
      "safeBatchTransferFrom(address,address,uint256[],uint256[],bytes)": {
        "details": "See {IERC1155-safeBatchTransferFrom}."
      },
      "safeTransferFrom(address,address,uint256,uint256,bytes)": {
        "details": "See {IERC1155-safeTransferFrom}."
      },
      "setApprovalForAll(address,bool)": {
        "details": "See {IERC1155-setApprovalForAll}."
      },
      "supportsInterface(bytes4)": {
        "details": "See {IERC165-supportsInterface}."
      },
      "upgradeTo(address)": {
        "details": "Upgrade the implementation of the proxy to `newImplementation`. Calls {_authorizeUpgrade}. Emits an {Upgraded} event."
      },
      "upgradeToAndCall(address,bytes)": {
        "details": "Upgrade the implementation of the proxy to `newImplementation`, and subsequently execute the function call encoded in `data`. Calls {_authorizeUpgrade}. Emits an {Upgraded} event."
      },
      "uri(uint256)": {
        "details": "See {IERC1155MetadataURI-uri}. This implementation returns the same URI for *all* token types. It relies on the token type ID substitution mechanism https://eips.ethereum.org/EIPS/eip-1155#metadata[defined in the EIP]. Clients calling this function must replace the `\\{id\\}` substring with the actual token type ID."
      }
    },
    "version": 1
  },
  "userdoc": {
    "kind": "user",
    "methods": {},
    "version": 1
  }
}