{
  "contractName": "NFTMinterUpgradeableV2",
  "abi": [
    {
      "anonymous": false,
      "inputs": [
        {
          "indexed": false,
          "internalType": "address",
          "name": "previousAdmin",
          "type": "address"
        },
        {
          "indexed": false,
          "internalType": "address",
          "name": "newAdmin",
          "type": "address"
        }
      ],
      "name": "AdminChanged",
      "type": "event"
    },
    {
      "anonymous": false,
      "inputs": [
        {
          "indexed": true,
          "internalType": "address",
          "name": "beacon",
          "type": "address"
        }
      ],
      "name": "BeaconUpgraded",
      "type": "event"
    },
    {
      "anonymous": false,
      "inputs": [
        {
          "indexed": true,
          "internalType": "address",
          "name": "previousOwner",
          "type": "address"
        },
        {
          "indexed": true,
          "internalType": "address",
          "name": "newOwner",
          "type": "address"
        }
      ],
      "name": "OwnershipTransferred",
      "type": "event"
    },
    {
      "anonymous": false,
      "inputs": [
        {
          "indexed": true,
          "internalType": "address",
          "name": "implementation",
          "type": "address"
        }
      ],
      "name": "Upgraded",
      "type": "event"
    },
    {
      "inputs": [
        {
          "internalType": "address",
          "name": "_nftToken",
          "type": "address"
        }
      ],
      "name": "initialize",
      "outputs": [],
      "stateMutability": "nonpayable",
      "type": "function"
    },
    {
      "inputs": [],
      "name": "owner",
      "outputs": [
        {
          "internalType": "address",
          "name": "",
          "type": "address"
        }
      ],
      "stateMutability": "view",
      "type": "function"
    },
    {
      "inputs": [],
      "name": "renounceOwnership",
      "outputs": [],
      "stateMutability": "nonpayable",
      "type": "function"
    },
    {
      "inputs": [
        {
          "internalType": "address",
          "name": "newOwner",
          "type": "address"
        }
      ],
      "name": "transferOwnership",
      "outputs": [],
      "stateMutability": "nonpayable",
      "type": "function"
    },
    {
      "inputs": [
        {
          "internalType": "address",
          "name": "newImplementation",
          "type": "address"
        }
      ],
      "name": "upgradeTo",
      "outputs": [],
      "stateMutability": "nonpayable",
      "type": "function"
    },
    {
      "inputs": [
        {
          "internalType": "address",
          "name": "newImplementation",
          "type": "address"
        },
        {
          "internalType": "bytes",
          "name": "data",
          "type": "bytes"
        }
      ],
      "name": "upgradeToAndCall",
      "outputs": [],
      "stateMutability": "payable",
      "type": "function"
    },
    {
      "inputs": [],
      "name": "mintNFT",
      "outputs": [],
      "stateMutability": "nonpayable",
      "type": "function"
    }
  ],
  "bytecode": "0x60a06040523060805234801561001457600080fd5b50600054610100900460ff166100305760005460ff1615610038565b6100386100d9565b61009f5760405162461bcd60e51b815260206004820152602e60248201527f496e697469616c697a61626c653a20636f6e747261637420697320616c72656160448201526d191e481a5b9a5d1a585b1a5e995960921b606482015260840160405180910390fd5b600054610100900460ff161580156100c1576000805461ffff19166101011790555b80156100d3576000805461ff00191690555b506100fa565b60006100ee306100f460201b6104f91760201c565b15905090565b3b151590565b608051610cc861012a600039600081816101c60152818161020f0152818161029801526102d80152610cc86000f3fe6080604052600436106100705760003560e01c8063715018a61161004e578063715018a6146100bf5780638da5cb5b146100d4578063c4d66de814610100578063f2fde38b1461012057600080fd5b806314f710fe146100755780633659cfe61461008c5780634f1ef286146100ac575b600080fd5b34801561008157600080fd5b5061008a610140565b005b34801561009857600080fd5b5061008a6100a73660046109e5565b6101bb565b61008a6100ba366004610a16565b61028d565b3480156100cb57600080fd5b5061008a610347565b3480156100e057600080fd5b50603354604080516001600160a01b039092168252519081900360200190f35b34801561010c57600080fd5b5061008a61011b3660046109e5565b61037d565b34801561012c57600080fd5b5061008a61013b3660046109e5565b610461565b60c9546001600160a01b031663156e29f6336040516001600160e01b031960e084901b1681526001600160a01b0390911660048201526001602482018190526044820152606401600060405180830381600087803b1580156101a157600080fd5b505af11580156101b5573d6000803e3d6000fd5b50505050565b306001600160a01b037f000000000000000000000000000000000000000000000000000000000000000016141561020d5760405162461bcd60e51b815260040161020490610ad8565b60405180910390fd5b7f00000000000000000000000000000000000000000000000000000000000000006001600160a01b031661023f6104ff565b6001600160a01b0316146102655760405162461bcd60e51b815260040161020490610b24565b61026e8161052d565b6040805160008082526020820190925261028a91839190610557565b50565b306001600160a01b037f00000000000000000000000000000000000000000000000000000000000000001614156102d65760405162461bcd60e51b815260040161020490610ad8565b7f00000000000000000000000000000000000000000000000000000000000000006001600160a01b03166103086104ff565b6001600160a01b03161461032e5760405162461bcd60e51b815260040161020490610b24565b6103378261052d565b61034382826001610557565b5050565b6033546001600160a01b031633146103715760405162461bcd60e51b815260040161020490610b70565b61037b60006106a2565b565b600054610100900460ff166103985760005460ff161561039c565b303b155b6103ff5760405162461bcd60e51b815260206004820152602e60248201527f496e697469616c697a61626c653a20636f6e747261637420697320616c72656160448201526d191e481a5b9a5d1a585b1a5e995960921b6064820152608401610204565b600054610100900460ff16158015610421576000805461ffff19166101011790555b60c980546001600160a01b0319166001600160a01b0384161790556104446106f4565b61044c61072b565b8015610343576000805461ff00191690555050565b6033546001600160a01b0316331461048b5760405162461bcd60e51b815260040161020490610b70565b6001600160a01b0381166104f05760405162461bcd60e51b815260206004820152602660248201527f4f776e61626c653a206e6577206f776e657220697320746865207a65726f206160448201526564647265737360d01b6064820152608401610204565b61028a816106a2565b3b151590565b7f360894a13ba1a3210667c828492db98dca3e2076cc3735a920a3ca505d382bbc546001600160a01b031690565b6033546001600160a01b0316331461028a5760405162461bcd60e51b815260040161020490610b70565b60006105616104ff565b905061056c84610762565b6000835111806105795750815b1561058a576105888484610807565b505b7f4910fdfa16fed3260ed0e7147f7cc6da11a60208b5b9406d12a635614ffd9143805460ff1661069b57805460ff191660011781556040516001600160a01b038316602482015261060990869060440160408051601f198184030181529190526020810180516001600160e01b0316631b2ce7f360e11b179052610807565b50805460ff1916815561061a6104ff565b6001600160a01b0316826001600160a01b0316146106925760405162461bcd60e51b815260206004820152602f60248201527f45524331393637557067726164653a207570677261646520627265616b73206660448201526e75727468657220757067726164657360881b6064820152608401610204565b61069b856108f2565b5050505050565b603380546001600160a01b038381166001600160a01b0319831681179093556040519116919082907f8be0079c531659141344cd1fd0a4f28419497f9722a3daafe3b4186f6b6457e090600090a35050565b600054610100900460ff1661071b5760405162461bcd60e51b815260040161020490610ba5565b610723610932565b61037b610959565b600054610100900460ff166107525760405162461bcd60e51b815260040161020490610ba5565b61075a610932565b61037b610932565b803b6107c65760405162461bcd60e51b815260206004820152602d60248201527f455243313936373a206e657720696d706c656d656e746174696f6e206973206e60448201526c1bdd08184818dbdb9d1c9858dd609a1b6064820152608401610204565b7f360894a13ba1a3210667c828492db98dca3e2076cc3735a920a3ca505d382bbc80546001600160a01b0319166001600160a01b0392909216919091179055565b6060823b6108665760405162461bcd60e51b815260206004820152602660248201527f416464726573733a2064656c65676174652063616c6c20746f206e6f6e2d636f6044820152651b9d1c9858dd60d21b6064820152608401610204565b600080846001600160a01b0316846040516108819190610c1c565b600060405180830381855af49150503d80600081146108bc576040519150601f19603f3d011682016040523d82523d6000602084013e6108c1565b606091505b50915091506108e98282604051806060016040528060278152602001610c6c60279139610989565b95945050505050565b6108fb81610762565b6040516001600160a01b038216907fbc7cd75a20ee27fd9adebab32041f755214dbc6bffa90cc0225b39da2e5c2d3b90600090a250565b600054610100900460ff1661037b5760405162461bcd60e51b815260040161020490610ba5565b600054610100900460ff166109805760405162461bcd60e51b815260040161020490610ba5565b61037b336106a2565b606083156109985750816109c2565b8251156109a85782518084602001fd5b8160405162461bcd60e51b81526004016102049190610c38565b9392505050565b80356001600160a01b03811681146109e057600080fd5b919050565b6000602082840312156109f757600080fd5b6109c2826109c9565b634e487b7160e01b600052604160045260246000fd5b60008060408385031215610a2957600080fd5b610a32836109c9565b9150602083013567ffffffffffffffff80821115610a4f57600080fd5b818501915085601f830112610a6357600080fd5b813581811115610a7557610a75610a00565b604051601f8201601f19908116603f01168101908382118183101715610a9d57610a9d610a00565b81604052828152886020848701011115610ab657600080fd5b8260208601602083013760006020848301015280955050505050509250929050565b6020808252602c908201527f46756e6374696f6e206d7573742062652063616c6c6564207468726f7567682060408201526b19195b1959d85d1958d85b1b60a21b606082015260800190565b6020808252602c908201527f46756e6374696f6e206d7573742062652063616c6c6564207468726f7567682060408201526b6163746976652070726f787960a01b606082015260800190565b6020808252818101527f4f776e61626c653a2063616c6c6572206973206e6f7420746865206f776e6572604082015260600190565b6020808252602b908201527f496e697469616c697a61626c653a20636f6e7472616374206973206e6f74206960408201526a6e697469616c697a696e6760a81b606082015260800190565b60005b83811015610c0b578181015183820152602001610bf3565b838111156101b55750506000910152565b60008251610c2e818460208701610bf0565b9190910192915050565b6020815260008251806020840152610c57816040850160208701610bf0565b601f01601f1916919091016040019291505056fe416464726573733a206c6f772d6c6576656c2064656c65676174652063616c6c206661696c6564a26469706673582212200f1f06e20cfeb1751ec8f7e7a42f8a938e37eb2ffb1e08922a41def9fa91a42064736f6c634300080b0033",
  "immutableReferences": {
    "644": [
      {
        "length": 32,
        "start": 454
      },
      {
        "length": 32,
        "start": 527
      },
      {
        "length": 32,
        "start": 664
      },
      {
        "length": 32,
        "start": 728
      }
    ]
  },
  "source": "// SPDX-License-Identifier: MIT\npragma solidity ^0.8.11;\n\nimport \"@openzeppelin/contracts-upgradeable/proxy/utils/Initializable.sol\";\nimport \"@openzeppelin/contracts-upgradeable/access/OwnableUpgradeable.sol\";\nimport \"@openzeppelin/contracts-upgradeable/proxy/utils/UUPSUpgradeable.sol\";\nimport \"./NFTMinterUpgradeableV1.sol\";\n\ncontract NFTMinterUpgradeableV2 is NFTMinterUpgradeableV1 {\n    function mintNFT() public override {\n        nftToken.mint(_msgSender(), 1, 1);\n    }\n}\n",
  "sourcePath": "/home/yosephkurniasoenggoro/Documents/GitHub/moralis-upgradeable-smart-contracts/Truffle/contracts/NFTMinterUpgradeable/NFTMinterUpgradeableV2.sol",
  "compiler": {
    "name": "solc",
    "version": "0.8.11+commit.d7f03943.Emscripten.clang"
  },
  "schemaVersion": "3.4.4",
  "updatedAt": "2022-01-18T18:32:59.984Z",
  "devdoc": {
    "kind": "dev",
    "methods": {
      "owner()": {
        "details": "Returns the address of the current owner."
      },
      "renounceOwnership()": {
        "details": "Leaves the contract without owner. It will not be possible to call `onlyOwner` functions anymore. Can only be called by the current owner. NOTE: Renouncing ownership will leave the contract without an owner, thereby removing any functionality that is only available to the owner."
      },
      "transferOwnership(address)": {
        "details": "Transfers ownership of the contract to a new account (`newOwner`). Can only be called by the current owner."
      },
      "upgradeTo(address)": {
        "details": "Upgrade the implementation of the proxy to `newImplementation`. Calls {_authorizeUpgrade}. Emits an {Upgraded} event."
      },
      "upgradeToAndCall(address,bytes)": {
        "details": "Upgrade the implementation of the proxy to `newImplementation`, and subsequently execute the function call encoded in `data`. Calls {_authorizeUpgrade}. Emits an {Upgraded} event."
      }
    },
    "version": 1
  },
  "userdoc": {
    "kind": "user",
    "methods": {},
    "version": 1
  }
}